{
  "contractName": "TodoList",
  "abi": [
    {
      "inputs": [],
      "payable": false,
      "stateMutability": "nonpayable",
      "type": "constructor"
    },
    {
      "anonymous": false,
      "inputs": [
        {
          "indexed": false,
          "internalType": "uint256",
          "name": "id",
          "type": "uint256"
        },
        {
          "indexed": false,
          "internalType": "bool",
          "name": "completed",
          "type": "bool"
        }
      ],
      "name": "TaskCompleted",
      "type": "event"
    },
    {
      "anonymous": false,
      "inputs": [
        {
          "indexed": false,
          "internalType": "uint256",
          "name": "id",
          "type": "uint256"
        },
        {
          "indexed": false,
          "internalType": "string",
          "name": "content",
          "type": "string"
        },
        {
          "indexed": false,
          "internalType": "bool",
          "name": "completed",
          "type": "bool"
        },
        {
          "indexed": false,
          "internalType": "bool",
          "name": "deleted",
          "type": "bool"
        },
        {
          "indexed": false,
          "internalType": "uint256",
          "name": "priority",
          "type": "uint256"
        },
        {
          "indexed": false,
          "internalType": "string",
          "name": "assignedTo",
          "type": "string"
        }
      ],
      "name": "TaskCreated",
      "type": "event"
    },
    {
      "anonymous": false,
      "inputs": [
        {
          "indexed": false,
          "internalType": "uint256",
          "name": "id",
          "type": "uint256"
        },
        {
          "indexed": false,
          "internalType": "bool",
          "name": "deleted",
          "type": "bool"
        }
      ],
      "name": "TaskDeleted",
      "type": "event"
    },
    {
      "anonymous": false,
      "inputs": [
        {
          "indexed": false,
          "internalType": "uint256",
          "name": "id",
          "type": "uint256"
        },
        {
          "indexed": false,
          "internalType": "string",
          "name": "content",
          "type": "string"
        },
        {
          "indexed": false,
          "internalType": "bool",
          "name": "completed",
          "type": "bool"
        },
        {
          "indexed": false,
          "internalType": "bool",
          "name": "deleted",
          "type": "bool"
        },
        {
          "indexed": false,
          "internalType": "uint256",
          "name": "priority",
          "type": "uint256"
        },
        {
          "indexed": false,
          "internalType": "string",
          "name": "assignedTo",
          "type": "string"
        }
      ],
      "name": "TaskUpdated",
      "type": "event"
    },
    {
      "anonymous": false,
      "inputs": [
        {
          "indexed": false,
          "internalType": "string[]",
          "name": "content",
          "type": "string[]"
        }
      ],
      "name": "userFiltered",
      "type": "event"
    },
    {
      "constant": true,
      "inputs": [
        {
          "internalType": "uint256",
          "name": "",
          "type": "uint256"
        }
      ],
      "name": "contentData",
      "outputs": [
        {
          "internalType": "string",
          "name": "",
          "type": "string"
        }
      ],
      "payable": false,
      "stateMutability": "view",
      "type": "function"
    },
    {
      "constant": true,
      "inputs": [
        {
          "internalType": "uint256",
          "name": "",
          "type": "uint256"
        }
      ],
      "name": "endtime",
      "outputs": [
        {
          "internalType": "uint256",
          "name": "",
          "type": "uint256"
        }
      ],
      "payable": false,
      "stateMutability": "view",
      "type": "function"
    },
    {
      "constant": true,
      "inputs": [
        {
          "internalType": "uint256",
          "name": "",
          "type": "uint256"
        }
      ],
      "name": "starttime",
      "outputs": [
        {
          "internalType": "uint256",
          "name": "",
          "type": "uint256"
        }
      ],
      "payable": false,
      "stateMutability": "view",
      "type": "function"
    },
    {
      "constant": true,
      "inputs": [],
      "name": "taskCount",
      "outputs": [
        {
          "internalType": "uint256",
          "name": "",
          "type": "uint256"
        }
      ],
      "payable": false,
      "stateMutability": "view",
      "type": "function"
    },
    {
      "constant": true,
      "inputs": [
        {
          "internalType": "uint256",
          "name": "",
          "type": "uint256"
        }
      ],
      "name": "tasks",
      "outputs": [
        {
          "internalType": "uint256",
          "name": "id",
          "type": "uint256"
        },
        {
          "internalType": "string",
          "name": "content",
          "type": "string"
        },
        {
          "internalType": "bool",
          "name": "completed",
          "type": "bool"
        },
        {
          "internalType": "bool",
          "name": "deleted",
          "type": "bool"
        },
        {
          "internalType": "uint256",
          "name": "priority",
          "type": "uint256"
        },
        {
          "internalType": "string",
          "name": "assignedTo",
          "type": "string"
        }
      ],
      "payable": false,
      "stateMutability": "view",
      "type": "function"
    },
    {
      "constant": false,
      "inputs": [
        {
          "internalType": "string",
          "name": "_content",
          "type": "string"
        },
        {
          "internalType": "uint256",
          "name": "_priority",
          "type": "uint256"
        },
        {
          "internalType": "string",
          "name": "_assignedTo",
          "type": "string"
        }
      ],
      "name": "createTask",
      "outputs": [],
      "payable": false,
      "stateMutability": "nonpayable",
      "type": "function"
    },
    {
      "constant": false,
      "inputs": [
        {
          "internalType": "uint256",
          "name": "_id",
          "type": "uint256"
        }
      ],
      "name": "deleteTask",
      "outputs": [],
      "payable": false,
      "stateMutability": "nonpayable",
      "type": "function"
    },
    {
      "constant": false,
      "inputs": [
        {
          "internalType": "uint256",
          "name": "_id",
          "type": "uint256"
        },
        {
          "internalType": "string",
          "name": "_newContent",
          "type": "string"
        },
        {
          "internalType": "uint256",
          "name": "_priority",
          "type": "uint256"
        },
        {
          "internalType": "string",
          "name": "_assignedTo",
          "type": "string"
        }
      ],
      "name": "editTask",
      "outputs": [],
      "payable": false,
      "stateMutability": "nonpayable",
      "type": "function"
    },
    {
      "constant": false,
      "inputs": [
        {
          "internalType": "uint256",
          "name": "_id",
          "type": "uint256"
        }
      ],
      "name": "toggleCompleted",
      "outputs": [],
      "payable": false,
      "stateMutability": "nonpayable",
      "type": "function"
    },
    {
      "constant": false,
      "inputs": [
        {
          "internalType": "uint256",
          "name": "_id",
          "type": "uint256"
        },
        {
          "internalType": "string",
          "name": "_assignedTo",
          "type": "string"
        }
      ],
      "name": "assignTask",
      "outputs": [],
      "payable": false,
      "stateMutability": "nonpayable",
      "type": "function"
    },
    {
      "constant": false,
      "inputs": [
        {
          "internalType": "string",
          "name": "_assignedTo",
          "type": "string"
        }
      ],
      "name": "filterByUser",
      "outputs": [],
      "payable": false,
      "stateMutability": "nonpayable",
      "type": "function"
    },
    {
      "constant": true,
      "inputs": [
        {
          "internalType": "string",
          "name": "a",
          "type": "string"
        },
        {
          "internalType": "string",
          "name": "b",
          "type": "string"
        }
      ],
      "name": "compareStrings",
      "outputs": [
        {
          "internalType": "bool",
          "name": "",
          "type": "bool"
        }
      ],
      "payable": false,
      "stateMutability": "pure",
      "type": "function"
    }
  ],
  "bytecode": "0x6080604052600080553480156200001557600080fd5b5062000064604051806040016040528060078152602001665461736b20233160c81b8152506001604051806040016040528060038152602001624a617960e81b8152506200006a60201b60201c565b620003d1565b600182101580156200007d575060038211155b620000a55760405162461bcd60e51b81526004016200009c90620002f7565b60405180910390fd5b6000805460019081018083558252600360209081526040808420429055805160c0810182528454808252818401898152828401879052606083018790526080830189905260a083018890529086528484529190942084518155905180519193620001169390850192910190620001bb565b506040820151600282018054606085015115156101000261ff001993151560ff1990921691909117929092169190911790556080820151600382015560a082015180516200016f916004840191602090910190620001bb565b5050600080546040517f2b6d2cd46eae4ae36e1b6c592e677fc56480e39c8a344490a3a3407df5c642549350620001ae9287918190889088906200030f565b60405180910390a1505050565b828054600181600116156101000203166002900490600052602060002090601f016020900481019282601f10620001fe57805160ff19168380011785556200022e565b828001600101855582156200022e579182015b828111156200022e57825182559160200191906001019062000211565b506200023c92915062000240565b5090565b6200025d91905b808211156200023c576000815560010162000247565b90565b6200026b816200038f565b82525050565b60006200027e8262000382565b6200028a818562000386565b93506200029c81856020860162000394565b620002a781620003c7565b9093019392505050565b6000620002c060168362000386565b7f496e76616c6964207072696f72697479206c6576656c00000000000000000000815260200192915050565b6200026b816200025d565b602080825281016200030981620002b1565b92915050565b60c081016200031f8289620002ec565b818103602083015262000333818862000271565b905062000344604083018762000260565b62000353606083018662000260565b620003626080830185620002ec565b81810360a083015262000376818462000271565b98975050505050505050565b5190565b90815260200190565b151590565b60005b83811015620003b157818101518382015260200162000397565b83811115620003c1576000848401525b50505050565b601f01601f191690565b6116e680620003e16000396000f3fe608060405234801561001057600080fd5b50600436106100b45760003560e01c80638d977672116100715780638d97767214610150578063b6cb58a514610175578063bed34bba1461017d578063da5b73851461019d578063e023b1d1146101b0578063e6961389146101c3576100b4565b806316c7ac90146100b957806325a9e76a146100ce5780633871a8c7146100f7578063455f50241461010a5780634e65501e1461011d578063560f31921461013d575b600080fd5b6100cc6100c73660046111e9565b6101d6565b005b6100e16100dc366004611265565b61031d565b6040516100ee91906114f1565b60405180910390f35b6100cc610105366004611143565b61032f565b6100cc610118366004611265565b610491565b61013061012b366004611265565b6106f2565b6040516100ee91906114a9565b6100cc61014b366004611265565b610798565b61016361015e366004611265565b610b2d565b6040516100ee9695949392919061151a565b6100e1610c7d565b61019061018b366004611180565b610c83565b6040516100ee919061149b565b6100e16101ab366004611265565b610c9f565b6100cc6101be3660046112a2565b610cb1565b6100cc6101d1366004611283565b610e88565b600182101580156101e8575060038211155b61020d5760405162461bcd60e51b8152600401610204906114c1565b60405180910390fd5b6000805460019081018083558252600360209081526040808420429055805160c0810182528454808252818401898152828401879052606083018790526080830189905260a08301889052908652848452919094208451815590518051919361027c9390850192910190610ed7565b506040820151600282018054606085015115156101000261ff001993151560ff1990921691909117929092169190911790556080820151600382015560a082015180516102d3916004840191602090910190610ed7565b5050600080546040517f2b6d2cd46eae4ae36e1b6c592e677fc56480e39c8a344490a3a3407df5c64254935061031092879181908890889061151a565b60405180910390a1505050565b60046020526000908152604090205481565b60005460405190808252806020026020018201604052801561036557816020015b60608152602001906001900390816103505790505b50805161037a91600291602090910190610f55565b506000805b600054811161048c5760008181526001602081815260409283902060040180548451600294821615610100026000190190911693909304601f810183900483028401830190945283835261042b9390918301828280156104205780601f106103f557610100808354040283529160200191610420565b820191906000526020600020905b81548152906001019060200180831161040357829003601f168201915b505050505084610c83565b1561048457600160008281526020019081526020016000206001016002838060010194508154811061045957fe5b906000526020600020019080546001816001161561010002031660029004610482929190610fae565b505b60010161037f565b505050565b610499611023565b600082815260016020818152604092839020835160c0810185528154815281840180548651600296821615610100026000190190911695909504601f810185900485028601850190965285855290949193858401939092908301828280156105425780601f1061051757610100808354040283529160200191610542565b820191906000526020600020905b81548152906001019060200180831161052557829003601f168201915b505050918352505060028281015460ff80821615156020808601919091526101009283900490911615156040808601919091526003860154606086015260048601805482516001821615909502600019011694909404601f8101839004830284018301909152808352608090940193919291908301828280156106065780601f106105db57610100808354040283529160200191610606565b820191906000526020600020905b8154815290600101906020018083116105e957829003601f168201915b505050919092525050506040808201805115905260008481526004602090815282822042905560018082529290912083518155818401518051949550859491936106569390850192910190610ed7565b506040820151600282018054606085015115156101000261ff001993151560ff1990921691909117929092169190911790556080820151600382015560a082015180516106ad916004840191602090910190610ed7565b509050507fe21fa966ca5cd02748c0752352d18c48165e61cb55b4c29cccf924b5a95fcff18282604001516040516106e69291906114ff565b60405180910390a15050565b600281815481106106ff57fe5b600091825260209182902001805460408051601f60026000196101006001871615020190941693909304928301859004850281018501909152818152935090918301828280156107905780601f1061076557610100808354040283529160200191610790565b820191906000526020600020905b81548152906001019060200180831161077357829003601f168201915b505050505081565b6000548111156107ba5760405162461bcd60e51b8152600401610204906114d1565b6107c2611023565b600082815260016020818152604092839020835160c0810185528154815281840180548651600296821615610100026000190190911695909504601f8101859004850286018501909652858552909491938584019390929083018282801561086b5780601f106108405761010080835404028352916020019161086b565b820191906000526020600020905b81548152906001019060200180831161084e57829003601f168201915b505050918352505060028281015460ff80821615156020808601919091526101009283900490911615156040808601919091526003860154606086015260048601805482516001821615909502600019011694909404601f81018390048302840183019091528083526080909401939192919083018282801561092f5780601f106109045761010080835404028352916020019161092f565b820191906000526020600020905b81548152906001019060200180831161091257829003601f168201915b505050919092525050600160608301819052600085815260208281526040909120845181558185015180519596508695919450610970938501920190610ed7565b506040820151600282018054606085015115156101000261ff001993151560ff1990921691909117929092169190911790556080820151600382015560a082015180516109c7916004840191602090910190610ed7565b50839150505b600054811015610aa4576001818101600090815260208290526040808220848352912081548155818301805492939192610a1b92848101929160029181161561010002600019011604610fae565b5060028281018054838301805460ff191660ff928316151517808255925461ff001990931661010093849004909216151583029190911790556003808501549084015560048085018054610a82949286019391926001821615909202600019011604610fae565b50505060008181526001602081905260409091208054600019019055016109cd565b5060008054815260016020819052604082208281559190610ac79083018261105d565b60028201805461ffff19169055600060038301819055610aeb90600484019061105d565b50506000805460001901905560608101516040517f572597a6891de3ffc5ddb25adeb4871a3bf451676410ca50eed9524c49bdc0e6916106e6918591906114ff565b600160208181526000928352604092839020805481840180548651600296821615610100026000190190911695909504601f81018590048502860185019096528585529094919392909190830182828015610bc95780601f10610b9e57610100808354040283529160200191610bc9565b820191906000526020600020905b815481529060010190602001808311610bac57829003601f168201915b505050506002838101546003850154600486018054604080516020610100600185161581026000190190941697909704601f8101889004880282018801909252818152979860ff808716999390960490951696509294909290830182828015610c735780601f10610c4857610100808354040283529160200191610c73565b820191906000526020600020905b815481529060010190602001808311610c5657829003601f168201915b5050505050905086565b60005481565b6000818051906020012083805190602001201490505b92915050565b60036020526000908152604090205481565b600084118015610cc357506000548411155b610cdf5760405162461bcd60e51b8152600401610204906114d1565b60018210158015610cf1575060038211155b610d0d5760405162461bcd60e51b8152600401610204906114c1565b60008481526001602052604090206002810154610100900460ff1615610d455760405162461bcd60e51b8152600401610204906114e1565b8351610d5a9060018301906020870190610ed7565b50600381018390558151610d779060048301906020850190610ed7565b5080600160008781526020019081526020016000206000820154816000015560018201816001019080546001816001161561010002031660029004610dbd929190610fae565b5060028281018054838301805460ff191660ff928316151517808255925461ff001990931661010093849004909216151583029190911790556003808501549084015560048085018054610e24949286019391926001821615909202600019011604610fae565b505050600281015460038201546040517ffcd7c53193bf22f3e316d499e629d026f1e9852a57b892ef9dffd095efb6f6cd92610e79928992600187019260ff8082169361010090920416916004890190611581565b60405180910390a15050505050565b600082118015610e9a57506000548211155b610eb65760405162461bcd60e51b8152600401610204906114d1565b6000828152600160209081526040909120825161048c926004909201918401905b828054600181600116156101000203166002900490600052602060002090601f016020900481019282601f10610f1857805160ff1916838001178555610f45565b82800160010185558215610f45579182015b82811115610f45578251825591602001919060010190610f2a565b50610f519291506110a4565b5090565b828054828255906000526020600020908101928215610fa2579160200282015b82811115610fa25782518051610f92918491602090910190610ed7565b5091602001919060010190610f75565b50610f519291506110c1565b828054600181600116156101000203166002900490600052602060002090601f016020900481019282601f10610fe75780548555610f45565b82800160010185558215610f4557600052602060002091601f016020900482015b82811115610f45578254825591600101919060010190611008565b6040518060c00160405280600081526020016060815260200160001515815260200160001515815260200160008152602001606081525090565b50805460018160011615610100020316600290046000825580601f1061108357506110a1565b601f0160209004906000526020600020908101906110a191906110a4565b50565b6110be91905b80821115610f5157600081556001016110aa565b90565b6110be91905b80821115610f515760006110db828261105d565b506001016110c7565b600082601f8301126110f557600080fd5b813561110861110382611603565b6115dc565b9150808252602083016020830185838301111561112457600080fd5b61112f838284611649565b50505092915050565b8035610c998161168f565b60006020828403121561115557600080fd5b813567ffffffffffffffff81111561116c57600080fd5b611178848285016110e4565b949350505050565b6000806040838503121561119357600080fd5b823567ffffffffffffffff8111156111aa57600080fd5b6111b6858286016110e4565b925050602083013567ffffffffffffffff8111156111d357600080fd5b6111df858286016110e4565b9150509250929050565b6000806000606084860312156111fe57600080fd5b833567ffffffffffffffff81111561121557600080fd5b611221868287016110e4565b935050602061123286828701611138565b925050604084013567ffffffffffffffff81111561124f57600080fd5b61125b868287016110e4565b9150509250925092565b60006020828403121561127757600080fd5b60006111788484611138565b6000806040838503121561129657600080fd5b60006111b68585611138565b600080600080608085870312156112b857600080fd5b60006112c48787611138565b945050602085013567ffffffffffffffff8111156112e157600080fd5b6112ed878288016110e4565b93505060406112fe87828801611138565b925050606085013567ffffffffffffffff81111561131b57600080fd5b611327878288016110e4565b91505092959194509250565b61133c81611644565b82525050565b600061134d82611637565b611357818561163b565b9350611367818560208601611655565b61137081611685565b9093019392505050565b60008154600181166000811461139757600181146113bd576113fc565b607f60028304166113a8818761163b565b60ff19841681529550506020850192506113fc565b600282046113cb818761163b565b95506113d68561162b565b60005b828110156113f5578154888201526001909101906020016113d9565b8701945050505b505092915050565b600061141160168361163b565b75125b9d985b1a59081c1c9a5bdc9a5d1e481b195d995b60521b815260200192915050565b6000611443600f8361163b565b6e125b9d985b1a59081d185cdac81251608a1b815260200192915050565b600061146e60158361163b565b7415185cdac81a185cc81899595b8819195b195d1959605a1b815260200192915050565b61133c816110be565b60208101610c998284611333565b602080825281016114ba8184611342565b9392505050565b60208082528101610c9981611404565b60208082528101610c9981611436565b60208082528101610c9981611461565b60208101610c998284611492565b6040810161150d8285611492565b6114ba6020830184611333565b60c081016115288289611492565b818103602083015261153a8188611342565b90506115496040830187611333565b6115566060830186611333565b6115636080830185611492565b81810360a08301526115758184611342565b98975050505050505050565b60c0810161158f8289611492565b81810360208301526115a1818861137a565b90506115b06040830187611333565b6115bd6060830186611333565b6115ca6080830185611492565b81810360a0830152611575818461137a565b60405181810167ffffffffffffffff811182821017156115fb57600080fd5b604052919050565b600067ffffffffffffffff82111561161a57600080fd5b506020601f91909101601f19160190565b60009081526020902090565b5190565b90815260200190565b151590565b82818337506000910152565b60005b83811015611670578181015183820152602001611658565b8381111561167f576000848401525b50505050565b601f01601f191690565b611698816110be565b81146110a157600080fdfea365627a7a7231582039fffe7df87f10b71ffbec08d274c4af110203dd9fb080c6478bda8b25eb2bce6c6578706572696d656e74616cf564736f6c63430005100040",
  "source": "pragma solidity ^0.5.0;\npragma experimental ABIEncoderV2;\n\ncontract TodoList {\n  uint public taskCount = 0;\n\n  struct Task {\n    uint id;\n    string content;\n    bool completed;\n    bool deleted;\n    uint priority;\n    string assignedTo;\n  }\n\n  mapping(uint => Task) public tasks;\n  string[]  public contentData;\n  mapping(uint => uint) public starttime;\n  mapping(uint => uint) public endtime;\n\n  event TaskCreated(\n    uint id,\n    string content,\n    bool completed,\n    bool deleted,\n    uint priority,\n    string assignedTo\n\n  );\n\n  event TaskCompleted(\n    uint id,\n    bool completed\n  );\n\n  event TaskDeleted(\n    uint id,\n    bool deleted\n  );\n\n  event TaskUpdated(\n    uint id,\n    string content,\n    bool completed,\n    bool deleted,\n    uint priority,\n    string assignedTo\n  );\n\nevent userFiltered(\n    string [] content\n  );\n\n  constructor() public {\n    createTask(\"Task #1\",1,\"Jay\");\n\n  }\n\n  function createTask(string memory _content,uint _priority, string memory _assignedTo) public {\n    require(_priority >= 1 && _priority <= 3, \"Invalid priority level\");\n    taskCount ++;\n    starttime[taskCount]=block.timestamp;\n    tasks[taskCount] = Task(taskCount, _content, false,false,_priority,_assignedTo);\n    emit TaskCreated(taskCount, _content, false,false,_priority,_assignedTo);\n  }\n\n  function deleteTask(uint _id) public {\n    require(_id <= taskCount, \"Invalid task ID\");\n    Task memory _task = tasks[_id];\n    _task.deleted = true;\n    tasks[_id] = _task;\n    for (uint i = _id; i<taskCount; i++){\n            tasks[i] = tasks[i+1];\n            tasks[i].id = tasks[i].id-1;\n        }\n    delete tasks[taskCount];\n    taskCount--;\n    emit TaskDeleted(_id,_task.deleted);\n  }\n\n  function editTask(uint _id, string memory _newContent, uint _priority,string memory _assignedTo) public {\n      require(_id > 0 && _id <= taskCount, \"Invalid task ID\");\n      require(_priority >= 1 && _priority <= 3, \"Invalid priority level\");\n\n      Task storage task = tasks[_id];\n      require(!task.deleted, \"Task has been deleted\");\n      task.content = _newContent;\n      task.priority = _priority;\n      task.assignedTo = _assignedTo;\n      tasks[_id] = task;\n      emit TaskUpdated(_id, task.content, task.completed, task.deleted,task.priority,task.assignedTo);\n}\n\n  function toggleCompleted(uint _id) public {\n    Task memory _task = tasks[_id];\n    _task.completed = !_task.completed;\n    endtime[_id]=block.timestamp;\n    tasks[_id] = _task;\n    emit TaskCompleted(_id, _task.completed);\n  } \n\n  function assignTask(uint _id,string memory _assignedTo) public {\n    require(_id > 0 && _id <= taskCount, \"Invalid task ID\");\n    tasks[_id].assignedTo = _assignedTo;\n  }\n\n  function filterByUser(string memory _assignedTo) public {\n    contentData = new string[](taskCount);\n    uint count=0;\n    for (uint i = 0; i<=taskCount; i++){\n            if (compareStrings(tasks[i].assignedTo, _assignedTo)){\n                contentData[count++]=tasks[i].content;\n            }\n        }\n  }\n  function compareStrings(string memory a, string memory b) public pure returns (bool) {\n    return keccak256(bytes(a)) == keccak256(bytes(b));\n}\n\n}\n\n",
  "sourcePath": "C:\\Users\\pradhatrivemula\\Downloads\\todo-List-Blockchain-main\\todo-List-Blockchain-main\\contracts\\TodoList.sol",
  "compiler": {
    "name": "solc",
    "version": "0.5.16+commit.9c3226ce.Emscripten.clang"
  },
  "schemaVersion": "3.4.11",
  "updatedAt": "2023-05-07T21:25:43.178Z",
  "networkType": "ethereum",
  "devdoc": {
    "methods": {}
  },
  "userdoc": {
    "methods": {}
  }
}