{
  "contractName": "TodoList",
  "abi": [
    {
      "constant": true,
      "inputs": [
        {
          "name": "",
          "type": "uint256"
        }
      ],
      "name": "tasks",
      "outputs": [
        {
          "name": "id",
          "type": "uint256"
        },
        {
          "name": "content",
          "type": "string"
        },
        {
          "name": "completed",
          "type": "bool"
        },
        {
          "name": "deleted",
          "type": "bool"
        },
        {
          "name": "priority",
          "type": "uint256"
        }
      ],
      "payable": false,
      "stateMutability": "view",
      "type": "function",
      "signature": "0x8d977672"
    },
    {
      "constant": true,
      "inputs": [],
      "name": "taskCount",
      "outputs": [
        {
          "name": "",
          "type": "uint256"
        }
      ],
      "payable": false,
      "stateMutability": "view",
      "type": "function",
      "signature": "0xb6cb58a5"
    },
    {
      "inputs": [],
      "payable": false,
      "stateMutability": "nonpayable",
      "type": "constructor",
      "signature": "constructor"
    },
    {
      "anonymous": false,
      "inputs": [
        {
          "indexed": false,
          "name": "id",
          "type": "uint256"
        },
        {
          "indexed": false,
          "name": "content",
          "type": "string"
        },
        {
          "indexed": false,
          "name": "completed",
          "type": "bool"
        },
        {
          "indexed": false,
          "name": "deleted",
          "type": "bool"
        },
        {
          "indexed": false,
          "name": "priority",
          "type": "uint256"
        }
      ],
      "name": "TaskCreated",
      "type": "event",
      "signature": "0x97e1ec919a4208f6300a42fcfb983f08c33fb44bace494c6444dca1ddd2c53e2"
    },
    {
      "anonymous": false,
      "inputs": [
        {
          "indexed": false,
          "name": "id",
          "type": "uint256"
        },
        {
          "indexed": false,
          "name": "completed",
          "type": "bool"
        }
      ],
      "name": "TaskCompleted",
      "type": "event",
      "signature": "0xe21fa966ca5cd02748c0752352d18c48165e61cb55b4c29cccf924b5a95fcff1"
    },
    {
      "anonymous": false,
      "inputs": [
        {
          "indexed": false,
          "name": "id",
          "type": "uint256"
        },
        {
          "indexed": false,
          "name": "deleted",
          "type": "bool"
        }
      ],
      "name": "TaskDeleted",
      "type": "event",
      "signature": "0x572597a6891de3ffc5ddb25adeb4871a3bf451676410ca50eed9524c49bdc0e6"
    },
    {
      "anonymous": false,
      "inputs": [
        {
          "indexed": false,
          "name": "id",
          "type": "uint256"
        },
        {
          "indexed": false,
          "name": "content",
          "type": "string"
        },
        {
          "indexed": false,
          "name": "completed",
          "type": "bool"
        },
        {
          "indexed": false,
          "name": "deleted",
          "type": "bool"
        },
        {
          "indexed": false,
          "name": "priority",
          "type": "uint256"
        }
      ],
      "name": "TaskUpdated",
      "type": "event",
      "signature": "0x212724a8136d3c948c6b81539095bcf90dce26d61303a00824852ef5ed2940df"
    },
    {
      "constant": false,
      "inputs": [
        {
          "name": "_content",
          "type": "string"
        },
        {
          "name": "_priority",
          "type": "uint256"
        }
      ],
      "name": "createTask",
      "outputs": [],
      "payable": false,
      "stateMutability": "nonpayable",
      "type": "function",
      "signature": "0x04fe2b34"
    },
    {
      "constant": false,
      "inputs": [
        {
          "name": "_id",
          "type": "uint256"
        }
      ],
      "name": "deleteTask",
      "outputs": [],
      "payable": false,
      "stateMutability": "nonpayable",
      "type": "function",
      "signature": "0x560f3192"
    },
    {
      "constant": false,
      "inputs": [
        {
          "name": "_id",
          "type": "uint256"
        },
        {
          "name": "_newContent",
          "type": "string"
        },
        {
          "name": "_priority",
          "type": "uint256"
        }
      ],
      "name": "editTask",
      "outputs": [],
      "payable": false,
      "stateMutability": "nonpayable",
      "type": "function",
      "signature": "0x0c311eb0"
    },
    {
      "constant": false,
      "inputs": [
        {
          "name": "_id",
          "type": "uint256"
        }
      ],
      "name": "toggleCompleted",
      "outputs": [],
      "payable": false,
      "stateMutability": "nonpayable",
      "type": "function",
      "signature": "0x455f5024"
    }
  ],
  "bytecode": "0x6080604052600080553480156200001557600080fd5b5060408051808201909152600781527f5461736b2023310000000000000000000000000000000000000000000000000060208201526200006090600164010000000062000066810204565b620002ed565b6001811015801562000079575060038111155b1515620000e757604080517f08c379a000000000000000000000000000000000000000000000000000000000815260206004820152601660248201527f496e76616c6964207072696f72697479206c6576656c00000000000000000000604482015290519081900360640190fd5b6000805460019081018083556040805160a081018252828152602080820188815282840187905260608301879052608083018890529386528481529190942084518155915180519293620001449390850192919091019062000248565b5060408281015160028301805460608087015115156101000261ff001994151560ff19909316929092179390931617905560809384015160039093019290925560008054825181815292830182905292820181905292810184905260a0602080830182815287519284019290925286517f97e1ec919a4208f6300a42fcfb983f08c33fb44bace494c6444dca1ddd2c53e295889490938493899360c0840191880190808383895b8381101562000205578181015183820152602001620001eb565b50505050905090810190601f168015620002335780820380516001836020036101000a031916815260200191505b50965050505050505060405180910390a15050565b828054600181600116156101000203166002900490600052602060002090601f016020900481019282601f106200028b57805160ff1916838001178555620002bb565b82800160010185558215620002bb579182015b82811115620002bb5782518255916020019190600101906200029e565b50620002c9929150620002cd565b5090565b620002ea91905b80821115620002c95760008155600101620002d4565b90565b610edb80620002fd6000396000f3fe6080604052600436106100775763ffffffff7c010000000000000000000000000000000000000000000000000000000060003504166304fe2b34811461007c5780630c311eb014610133578063455f5024146101ef578063560f3192146102195780638d97767214610243578063b6cb58a514610309575b600080fd5b34801561008857600080fd5b506101316004803603604081101561009f57600080fd5b8101906020810181356401000000008111156100ba57600080fd5b8201836020820111156100cc57600080fd5b803590602001918460018302840111640100000000831117156100ee57600080fd5b91908080601f0160208091040260200160405190810160405280939291908181526020018383808284376000920191909152509295505091359250610330915050565b005b34801561013f57600080fd5b506101316004803603606081101561015657600080fd5b8135919081019060408101602082013564010000000081111561017857600080fd5b82018360208201111561018a57600080fd5b803590602001918460018302840111640100000000831117156101ac57600080fd5b91908080601f01602080910402602001604051908101604052809392919081815260200183838082843760009201919091525092955050913592506104f4915050565b3480156101fb57600080fd5b506101316004803603602081101561021257600080fd5b50356107c9565b34801561022557600080fd5b506101316004803603602081101561023c57600080fd5b503561096f565b34801561024f57600080fd5b5061026d6004803603602081101561026657600080fd5b5035610c5f565b60405180868152602001806020018515151515815260200184151515158152602001838152602001828103825286818151815260200191508051906020019080838360005b838110156102ca5781810151838201526020016102b2565b50505050905090810190601f1680156102f75780820380516001836020036101000a031916815260200191505b50965050505050505060405180910390f35b34801561031557600080fd5b5061031e610d1e565b60408051918252519081900360200190f35b60018110158015610342575060038111155b1515610398576040805160e560020a62461bcd02815260206004820152601660248201527f496e76616c6964207072696f72697479206c6576656c00000000000000000000604482015290519081900360640190fd5b6000805460019081018083556040805160a0810182528281526020808201888152828401879052606083018790526080830188905293865284815291909420845181559151805192936103f393908501929190910190610d24565b5060408281015160028301805460608087015115156101000261ff001994151560ff19909316929092179390931617905560809384015160039093019290925560008054825181815292830182905292820181905292810184905260a0602080830182815287519284019290925286517f97e1ec919a4208f6300a42fcfb983f08c33fb44bace494c6444dca1ddd2c53e295889490938493899360c0840191880190808383895b838110156104b257818101518382015260200161049a565b50505050905090810190601f1680156104df5780820380516001836020036101000a031916815260200191505b50965050505050505060405180910390a15050565b60008311801561050657506000548311155b151561055c576040805160e560020a62461bcd02815260206004820152600f60248201527f496e76616c6964207461736b2049440000000000000000000000000000000000604482015290519081900360640190fd5b6001811015801561056e575060038111155b15156105c4576040805160e560020a62461bcd02815260206004820152601660248201527f496e76616c6964207072696f72697479206c6576656c00000000000000000000604482015290519081900360640190fd5b60008381526001602052604090206002810154610100900460ff1615610634576040805160e560020a62461bcd02815260206004820152601560248201527f5461736b20686173206265656e2064656c657465640000000000000000000000604482015290519081900360640190fd5b82516106499060018301906020860190610d24565b5081816003018190555080600160008681526020019081526020016000206000820154816000015560018201816001019080546001816001161561010002031660029004610698929190610da2565b5060028281018054838301805460ff191660ff928316151517808255925461ff001990931661010093849004831615158402179055600394850154938501939093558482015493850154604080518a8152868616801515928201929092529583900490941680151560608701526080860182905260a06020870181815260018981018054918216159096026000190116959095049087018190527f212724a8136d3c948c6b81539095bcf90dce26d61303a00824852ef5ed2940df968b969495929392909160c0830190879080156107b15780601f10610786576101008083540402835291602001916107b1565b820191906000526020600020905b81548152906001019060200180831161079457829003601f168201915b5050965050505050505060405180910390a150505050565b6107d1610e17565b600082815260016020818152604092839020835160a0810185528154815281840180548651600296821615610100026000190190911695909504601f8101859004850286018501909652858552909491938584019390929083018282801561087a5780601f1061084f5761010080835404028352916020019161087a565b820191906000526020600020905b81548152906001019060200180831161085d57829003601f168201915b5050509183525050600282015460ff808216151560208085019190915261010090920416151560408084019190915260039093015460609092019190915282820180511590526000858152600180835292902083518155838201518051949550859491936108ee9390850192910190610d24565b50604082810151600283018054606086015115156101000261ff001993151560ff199092169190911792909216919091179055608090920151600390910155818101518151848152901515602082015281517fe21fa966ca5cd02748c0752352d18c48165e61cb55b4c29cccf924b5a95fcff1929181900390910190a15050565b6000548111156109c9576040805160e560020a62461bcd02815260206004820152600f60248201527f496e76616c6964207461736b2049440000000000000000000000000000000000604482015290519081900360640190fd5b6109d1610e17565b600082815260016020818152604092839020835160a0810185528154815281840180548651600296821615610100026000190190911695909504601f81018590048502860185019096528585529094919385840193909290830182828015610a7a5780601f10610a4f57610100808354040283529160200191610a7a565b820191906000526020600020905b815481529060010190602001808311610a5d57829003601f168201915b5050509183525050600282015460ff808216151560208085019190915261010090920416151560408084019190915260039093015460609283015260019184018290526000868152828252929092208351815583830151805194955085949193610ae993850192910190610d24565b506040820151600282018054606085015115156101000261ff001993151560ff199092169190911792909216919091179055608090910151600390910155815b600054811015610bd8576001818101600090815260208290526040808220848352912081548155818301805492939192610b7792848101929160029181161561010002600019011604610da2565b5060028281018054918301805460ff938416151560ff1990911617808255915461010090819004909316151590920261ff00199091161790556003918201549101556000818152600160208190526040909120805460001901905501610b29565b5060008054815260016020819052604082208281559190610bfb90830182610e4b565b5060028101805461ffff19169055600060039091018190558054600019019055606081015160408051848152911515602083015280517f572597a6891de3ffc5ddb25adeb4871a3bf451676410ca50eed9524c49bdc0e69281900390910190a15050565b600160208181526000928352604092839020805481840180548651600296821615610100026000190190911695909504601f81018590048502860185019096528585529094919392909190830182828015610cfb5780601f10610cd057610100808354040283529160200191610cfb565b820191906000526020600020905b815481529060010190602001808311610cde57829003601f168201915b505050506002830154600390930154919260ff8082169361010090920416915085565b60005481565b828054600181600116156101000203166002900490600052602060002090601f016020900481019282601f10610d6557805160ff1916838001178555610d92565b82800160010185558215610d92579182015b82811115610d92578251825591602001919060010190610d77565b50610d9e929150610e92565b5090565b828054600181600116156101000203166002900490600052602060002090601f016020900481019282601f10610ddb5780548555610d92565b82800160010185558215610d9257600052602060002091601f016020900482015b82811115610d92578254825591600101919060010190610dfc565b60a0604051908101604052806000815260200160608152602001600015158152602001600015158152602001600081525090565b50805460018160011615610100020316600290046000825580601f10610e715750610e8f565b601f016020900490600052602060002090810190610e8f9190610e92565b50565b610eac91905b80821115610d9e5760008155600101610e98565b9056fea165627a7a72305820cd11f3870059de5f45e4985465bf4533d6b39bc199d206609b2a28393850c9240029",
  "source": "pragma solidity ^0.5.0;\r\n\r\ncontract TodoList {\r\n  uint public taskCount = 0;\r\n\r\n  struct Task {\r\n    uint id;\r\n    string content;\r\n    bool completed;\r\n    bool deleted;\r\n    uint priority;\r\n  }\r\n\r\n  \r\n\r\n  mapping(uint => Task) public tasks;\r\n\r\n  event TaskCreated(\r\n    uint id,\r\n    string content,\r\n    bool completed,\r\n    bool deleted,\r\n    uint priority\r\n  );\r\n\r\n  event TaskCompleted(\r\n    uint id,\r\n    bool completed\r\n  );\r\n\r\n  event TaskDeleted(\r\n    uint id,\r\n    bool deleted\r\n  );\r\n\r\n  event TaskUpdated(\r\n    uint id,\r\n    string content,\r\n    bool completed,\r\n    bool deleted,\r\n    uint priority\r\n\r\n  );\r\n\r\n  constructor() public {\r\n    createTask(\"Task #1\",1);\r\n  }\r\n\r\n  function createTask(string memory _content,uint _priority) public {\r\n    require(_priority >= 1 && _priority <= 3, \"Invalid priority level\");\r\n    taskCount ++;\r\n    tasks[taskCount] = Task(taskCount, _content, false,false,_priority);\r\n    emit TaskCreated(taskCount, _content, false,false,_priority);\r\n  }\r\n\r\n  function deleteTask(uint _id) public {\r\n    require(_id <= taskCount, \"Invalid task ID\");\r\n    Task memory _task = tasks[_id];\r\n    _task.deleted = true;\r\n    tasks[_id] = _task;\r\n    for (uint i = _id; i<taskCount; i++){\r\n            tasks[i] = tasks[i+1];\r\n            tasks[i].id = tasks[i].id-1;\r\n        }\r\n    delete tasks[taskCount];\r\n    taskCount--;\r\n    emit TaskDeleted(_id,_task.deleted);\r\n  }\r\n\r\n  function editTask(uint _id, string memory _newContent, uint _priority) public {\r\n      require(_id > 0 && _id <= taskCount, \"Invalid task ID\");\r\n      require(_priority >= 1 && _priority <= 3, \"Invalid priority level\");\r\n\r\n      Task storage task = tasks[_id];\r\n      require(!task.deleted, \"Task has been deleted\");\r\n      task.content = _newContent;\r\n      task.priority = _priority;\r\n      tasks[_id] = task;\r\n      emit TaskUpdated(_id, task.content, task.completed, task.deleted,task.priority);\r\n}\r\n\r\n  function toggleCompleted(uint _id) public {\r\n    Task memory _task = tasks[_id];\r\n    _task.completed = !_task.completed;\r\n    tasks[_id] = _task;\r\n    emit TaskCompleted(_id, _task.completed);\r\n  } \r\n\r\n}\r\n\r\n",
  "sourcePath": "C:/Users/16575/Documents/Sem2/AdvBlockchain/Final Project/todo-List-Blockchain/contracts/TodoList.sol",
  "compiler": {
    "name": "solc",
    "version": "0.5.0+commit.1d4f565a.Emscripten.clang"
  },
  "schemaVersion": "3.0.1",
  "updatedAt": "2023-04-29T19:40:05.650Z",
  "devdoc": {
    "methods": {}
  },
  "userdoc": {
    "methods": {}
  }
}