{
  "contractName": "TodoList",
  "abi": [
    {
      "constant": true,
      "inputs": [
        {
          "name": "",
          "type": "uint256"
        }
      ],
      "name": "contentData",
      "outputs": [
        {
          "name": "",
          "type": "string"
        }
      ],
      "payable": false,
      "stateMutability": "view",
      "type": "function",
      "signature": "0x4e65501e"
    },
    {
      "constant": true,
      "inputs": [
        {
          "name": "",
          "type": "uint256"
        }
      ],
      "name": "tasks",
      "outputs": [
        {
          "name": "id",
          "type": "uint256"
        },
        {
          "name": "content",
          "type": "string"
        },
        {
          "name": "completed",
          "type": "bool"
        },
        {
          "name": "deleted",
          "type": "bool"
        },
        {
          "name": "priority",
          "type": "uint256"
        },
        {
          "name": "assignedTo",
          "type": "string"
        }
      ],
      "payable": false,
      "stateMutability": "view",
      "type": "function",
      "signature": "0x8d977672"
    },
    {
      "constant": true,
      "inputs": [],
      "name": "taskCount",
      "outputs": [
        {
          "name": "",
          "type": "uint256"
        }
      ],
      "payable": false,
      "stateMutability": "view",
      "type": "function",
      "signature": "0xb6cb58a5"
    },
    {
      "inputs": [],
      "payable": false,
      "stateMutability": "nonpayable",
      "type": "constructor",
      "signature": "constructor"
    },
    {
      "anonymous": false,
      "inputs": [
        {
          "indexed": false,
          "name": "id",
          "type": "uint256"
        },
        {
          "indexed": false,
          "name": "content",
          "type": "string"
        },
        {
          "indexed": false,
          "name": "completed",
          "type": "bool"
        },
        {
          "indexed": false,
          "name": "deleted",
          "type": "bool"
        },
        {
          "indexed": false,
          "name": "priority",
          "type": "uint256"
        },
        {
          "indexed": false,
          "name": "assignedTo",
          "type": "string"
        }
      ],
      "name": "TaskCreated",
      "type": "event",
      "signature": "0x2b6d2cd46eae4ae36e1b6c592e677fc56480e39c8a344490a3a3407df5c64254"
    },
    {
      "anonymous": false,
      "inputs": [
        {
          "indexed": false,
          "name": "id",
          "type": "uint256"
        },
        {
          "indexed": false,
          "name": "completed",
          "type": "bool"
        }
      ],
      "name": "TaskCompleted",
      "type": "event",
      "signature": "0xe21fa966ca5cd02748c0752352d18c48165e61cb55b4c29cccf924b5a95fcff1"
    },
    {
      "anonymous": false,
      "inputs": [
        {
          "indexed": false,
          "name": "id",
          "type": "uint256"
        },
        {
          "indexed": false,
          "name": "deleted",
          "type": "bool"
        }
      ],
      "name": "TaskDeleted",
      "type": "event",
      "signature": "0x572597a6891de3ffc5ddb25adeb4871a3bf451676410ca50eed9524c49bdc0e6"
    },
    {
      "anonymous": false,
      "inputs": [
        {
          "indexed": false,
          "name": "id",
          "type": "uint256"
        },
        {
          "indexed": false,
          "name": "content",
          "type": "string"
        },
        {
          "indexed": false,
          "name": "completed",
          "type": "bool"
        },
        {
          "indexed": false,
          "name": "deleted",
          "type": "bool"
        },
        {
          "indexed": false,
          "name": "priority",
          "type": "uint256"
        },
        {
          "indexed": false,
          "name": "assignedTo",
          "type": "string"
        }
      ],
      "name": "TaskUpdated",
      "type": "event",
      "signature": "0xfcd7c53193bf22f3e316d499e629d026f1e9852a57b892ef9dffd095efb6f6cd"
    },
    {
      "anonymous": false,
      "inputs": [
        {
          "indexed": false,
          "name": "content",
          "type": "string[]"
        }
      ],
      "name": "userFiltered",
      "type": "event",
      "signature": "0xdd385d6ac24ccdf847c080433d6ac6ca7050dd3fb0a5d06cfcf5e4327fdf3daf"
    },
    {
      "constant": false,
      "inputs": [
        {
          "name": "_content",
          "type": "string"
        },
        {
          "name": "_priority",
          "type": "uint256"
        },
        {
          "name": "_assignedTo",
          "type": "string"
        }
      ],
      "name": "createTask",
      "outputs": [],
      "payable": false,
      "stateMutability": "nonpayable",
      "type": "function",
      "signature": "0x16c7ac90"
    },
    {
      "constant": false,
      "inputs": [
        {
          "name": "_id",
          "type": "uint256"
        }
      ],
      "name": "deleteTask",
      "outputs": [],
      "payable": false,
      "stateMutability": "nonpayable",
      "type": "function",
      "signature": "0x560f3192"
    },
    {
      "constant": false,
      "inputs": [
        {
          "name": "_id",
          "type": "uint256"
        },
        {
          "name": "_newContent",
          "type": "string"
        },
        {
          "name": "_priority",
          "type": "uint256"
        },
        {
          "name": "_assignedTo",
          "type": "string"
        }
      ],
      "name": "editTask",
      "outputs": [],
      "payable": false,
      "stateMutability": "nonpayable",
      "type": "function",
      "signature": "0xe023b1d1"
    },
    {
      "constant": false,
      "inputs": [
        {
          "name": "_id",
          "type": "uint256"
        }
      ],
      "name": "toggleCompleted",
      "outputs": [],
      "payable": false,
      "stateMutability": "nonpayable",
      "type": "function",
      "signature": "0x455f5024"
    },
    {
      "constant": false,
      "inputs": [
        {
          "name": "_id",
          "type": "uint256"
        },
        {
          "name": "_assignedTo",
          "type": "string"
        }
      ],
      "name": "assignTask",
      "outputs": [],
      "payable": false,
      "stateMutability": "nonpayable",
      "type": "function",
      "signature": "0xe6961389"
    },
    {
      "constant": false,
      "inputs": [
        {
          "name": "_assignedTo",
          "type": "string"
        }
      ],
      "name": "filterByUser",
      "outputs": [],
      "payable": false,
      "stateMutability": "nonpayable",
      "type": "function",
      "signature": "0x3871a8c7"
    },
    {
      "constant": true,
      "inputs": [
        {
          "name": "a",
          "type": "string"
        },
        {
          "name": "b",
          "type": "string"
        }
      ],
      "name": "compareStrings",
      "outputs": [
        {
          "name": "",
          "type": "bool"
        }
      ],
      "payable": false,
      "stateMutability": "pure",
      "type": "function",
      "signature": "0xbed34bba"
    }
  ],
  "bytecode": "0x6080604052600080553480156200001557600080fd5b506200009d6040805190810160405280600781526020017f5461736b2023310000000000000000000000000000000000000000000000000081525060016040805190810160405280600381526020017f4a61790000000000000000000000000000000000000000000000000000000000815250620000a3640100000000026401000000009004565b62000400565b60018210158015620000b6575060038211155b1515620000fa576040517f08c379a0000000000000000000000000000000000000000000000000000000008152600401620000f1906200032f565b60405180910390fd5b6000805460019081018083556040805160c0810182528281526020808201898152828401879052606083018790526080830189905260a0830188905293865284815291909420845181559151805192936200015e9390850192919091019062000203565b506040820151600282018054606085015115156101000261ff001993151560ff1990921691909117929092169190911790556080820151600382015560a08201518051620001b791600484019160209091019062000203565b5050600080546040517f2b6d2cd46eae4ae36e1b6c592e677fc56480e39c8a344490a3a3407df5c642549350620001f692879181908890889062000347565b60405180910390a1505050565b828054600181600116156101000203166002900490600052602060002090601f016020900481019282601f106200024657805160ff191683800117855562000276565b8280016001018555821562000276579182015b828111156200027657825182559160200191906001019062000259565b506200028492915062000288565b5090565b620002a591905b808211156200028457600081556001016200028f565b90565b620002b381620003be565b82525050565b6000620002c682620003ba565b808452620002dc816020860160208601620003c3565b620002e781620003f6565b9093016020019392505050565b601681527f496e76616c6964207072696f72697479206c6576656c00000000000000000000602082015260400190565b620002b381620002a5565b602080825281016200034181620002f4565b92915050565b60c0810162000357828962000324565b81810360208301526200036b8188620002b9565b90506200037c6040830187620002a8565b6200038b6060830186620002a8565b6200039a608083018562000324565b81810360a0830152620003ae8184620002b9565b98975050505050505050565b5190565b151590565b60005b83811015620003e0578181015183820152602001620003c6565b83811115620003f0576000848401525b50505050565b601f01601f191690565b6116e180620004106000396000f3fe6080604052600436106100a35763ffffffff7c010000000000000000000000000000000000000000000000000000000060003504166316c7ac9081146100a85780633871a8c7146100ca578063455f5024146100ea5780634e65501e1461010a578063560f3192146101405780638d97767214610160578063b6cb58a514610192578063bed34bba146101b4578063e023b1d1146101e1578063e696138914610201575b600080fd5b3480156100b457600080fd5b506100c86100c336600461121d565b610221565b005b3480156100d657600080fd5b506100c86100e5366004611177565b610360565b3480156100f657600080fd5b506100c8610105366004611299565b6104c4565b34801561011657600080fd5b5061012a610125366004611299565b610719565b60405161013791906114d1565b60405180910390f35b34801561014c57600080fd5b506100c861015b366004611299565b6107c0565b34801561016c57600080fd5b5061018061017b366004611299565b610b58565b6040516101379695949392919061153b565b34801561019e57600080fd5b506101a7610ca8565b6040516101379190611512565b3480156101c057600080fd5b506101d46101cf3660046111b4565b610cae565b60405161013791906114c3565b3480156101ed57600080fd5b506100c86101fc3660046112d6565b610cca565b34801561020d57600080fd5b506100c861021c3660046112b7565b610eae565b60018210158015610233575060038211155b151561025d5760405160e560020a62461bcd028152600401610254906114e2565b60405180910390fd5b6000805460019081018083556040805160c0810182528281526020808201898152828401879052606083018790526080830189905260a0830188905293865284815291909420845181559151805192936102bf93908501929190910190610f02565b506040820151600282018054606085015115156101000261ff001993151560ff1990921691909117929092169190911790556080820151600382015560a08201518051610316916004840191602090910190610f02565b5050600080546040517f2b6d2cd46eae4ae36e1b6c592e677fc56480e39c8a344490a3a3407df5c64254935061035392879181908890889061153b565b60405180910390a1505050565b60005460405190808252806020026020018201604052801561039657816020015b60608152602001906001900390816103815790505b5080516103ab91600291602090910190610f80565b506000805b60005481116104bf5760008181526001602081815260409283902060040180548451600294821615610100026000190190911693909304601f810183900483028401830190945283835261045c9390918301828280156104515780601f1061042657610100808354040283529160200191610451565b820191906000526020600020905b81548152906001019060200180831161043457829003601f168201915b505050505084610cae565b156104b7576001600082815260200190815260200160002060010160028380600101945081548110151561048c57fe5b9060005260206000200190805460018160011615610100020316600290046104b5929190610fd9565b505b6001016103b0565b505050565b6104cc61104e565b600082815260016020818152604092839020835160c0810185528154815281840180548651600296821615610100026000190190911695909504601f810185900485028601850190965285855290949193858401939092908301828280156105755780601f1061054a57610100808354040283529160200191610575565b820191906000526020600020905b81548152906001019060200180831161055857829003601f168201915b505050918352505060028281015460ff80821615156020808601919091526101009283900490911615156040808601919091526003860154606086015260048601805482516001821615909502600019011694909404601f8101839004830284018301909152808352608090940193919291908301828280156106395780601f1061060e57610100808354040283529160200191610639565b820191906000526020600020905b81548152906001019060200180831161061c57829003601f168201915b505050919092525050506040808201805115905260008481526001602081815292909120835181558284015180519495508594919361067d93850192910190610f02565b506040820151600282018054606085015115156101000261ff001993151560ff1990921691909117929092169190911790556080820151600382015560a082015180516106d4916004840191602090910190610f02565b509050507fe21fa966ca5cd02748c0752352d18c48165e61cb55b4c29cccf924b5a95fcff182826040015160405161070d929190611520565b60405180910390a15050565b600280548290811061072757fe5b600091825260209182902001805460408051601f60026000196101006001871615020190941693909304928301859004850281018501909152818152935090918301828280156107b85780601f1061078d576101008083540402835291602001916107b8565b820191906000526020600020905b81548152906001019060200180831161079b57829003601f168201915b505050505081565b6000548111156107e55760405160e560020a62461bcd028152600401610254906114f2565b6107ed61104e565b600082815260016020818152604092839020835160c0810185528154815281840180548651600296821615610100026000190190911695909504601f810185900485028601850190965285855290949193858401939092908301828280156108965780601f1061086b57610100808354040283529160200191610896565b820191906000526020600020905b81548152906001019060200180831161087957829003601f168201915b505050918352505060028281015460ff80821615156020808601919091526101009283900490911615156040808601919091526003860154606086015260048601805482516001821615909502600019011694909404601f81018390048302840183019091528083526080909401939192919083018282801561095a5780601f1061092f5761010080835404028352916020019161095a565b820191906000526020600020905b81548152906001019060200180831161093d57829003601f168201915b50505091909252505060016060830181905260008581526020828152604090912084518155818501518051959650869591945061099b938501920190610f02565b506040820151600282018054606085015115156101000261ff001993151560ff1990921691909117929092169190911790556080820151600382015560a082015180516109f2916004840191602090910190610f02565b50839150505b600054811015610acf576001818101600090815260208290526040808220848352912081548155818301805492939192610a4692848101929160029181161561010002600019011604610fd9565b5060028281018054838301805460ff191660ff928316151517808255925461ff001990931661010093849004909216151583029190911790556003808501549084015560048085018054610aad949286019391926001821615909202600019011604610fd9565b50505060008181526001602081905260409091208054600019019055016109f8565b5060008054815260016020819052604082208281559190610af290830182611089565b60028201805461ffff19169055600060038301819055610b16906004840190611089565b50506000805460001901905560608101516040517f572597a6891de3ffc5ddb25adeb4871a3bf451676410ca50eed9524c49bdc0e69161070d91859190611520565b600160208181526000928352604092839020805481840180548651600296821615610100026000190190911695909504601f81018590048502860185019096528585529094919392909190830182828015610bf45780601f10610bc957610100808354040283529160200191610bf4565b820191906000526020600020905b815481529060010190602001808311610bd757829003601f168201915b505050506002838101546003850154600486018054604080516020610100600185161581026000190190941697909704601f8101889004880282018801909252818152979860ff808716999390960490951696509294909290830182828015610c9e5780601f10610c7357610100808354040283529160200191610c9e565b820191906000526020600020905b815481529060010190602001808311610c8157829003601f168201915b5050505050905086565b60005481565b6000818051906020012083805190602001201490505b92915050565b600084118015610cdc57506000548411155b1515610cfd5760405160e560020a62461bcd028152600401610254906114f2565b60018210158015610d0f575060038211155b1515610d305760405160e560020a62461bcd028152600401610254906114e2565b60008481526001602052604090206002810154610100900460ff1615610d6b5760405160e560020a62461bcd02815260040161025490611502565b8351610d809060018301906020870190610f02565b50600381018390558151610d9d9060048301906020850190610f02565b5080600160008781526020019081526020016000206000820154816000015560018201816001019080546001816001161561010002031660029004610de3929190610fd9565b5060028281018054838301805460ff191660ff928316151517808255925461ff001990931661010093849004909216151583029190911790556003808501549084015560048085018054610e4a949286019391926001821615909202600019011604610fd9565b505050600281015460038201546040517ffcd7c53193bf22f3e316d499e629d026f1e9852a57b892ef9dffd095efb6f6cd92610e9f928992600187019260ff80821693610100909204169160048901906115a2565b60405180910390a15050505050565b600082118015610ec057506000548211155b1515610ee15760405160e560020a62461bcd028152600401610254906114f2565b600082815260016020908152604090912082516104bf926004909201918401905b828054600181600116156101000203166002900490600052602060002090601f016020900481019282601f10610f4357805160ff1916838001178555610f70565b82800160010185558215610f70579182015b82811115610f70578251825591602001919060010190610f55565b50610f7c9291506110d0565b5090565b828054828255906000526020600020908101928215610fcd579160200282015b82811115610fcd5782518051610fbd918491602090910190610f02565b5091602001919060010190610fa0565b50610f7c9291506110ed565b828054600181600116156101000203166002900490600052602060002090601f016020900481019282601f106110125780548555610f70565b82800160010185558215610f7057600052602060002091601f016020900482015b82811115610f70578254825591600101919060010190611033565b60c060405190810160405280600081526020016060815260200160001515815260200160001515815260200160008152602001606081525090565b50805460018160011615610100020316600290046000825580601f106110af57506110cd565b601f0160209004906000526020600020908101906110cd91906110d0565b50565b6110ea91905b80821115610f7c57600081556001016110d6565b90565b6110ea91905b80821115610f7c5760006111078282611089565b506001016110f3565b6000601f8201831361112157600080fd5b813561113461112f82611624565b6115fd565b9150808252602083016020830185838301111561115057600080fd5b61115b838284611661565b50505092915050565b600061117082356110ea565b9392505050565b60006020828403121561118957600080fd5b813567ffffffffffffffff8111156111a057600080fd5b6111ac84828501611110565b949350505050565b600080604083850312156111c757600080fd5b823567ffffffffffffffff8111156111de57600080fd5b6111ea85828601611110565b925050602083013567ffffffffffffffff81111561120757600080fd5b61121385828601611110565b9150509250929050565b60008060006060848603121561123257600080fd5b833567ffffffffffffffff81111561124957600080fd5b61125586828701611110565b935050602061126686828701611164565b925050604084013567ffffffffffffffff81111561128357600080fd5b61128f86828701611110565b9150509250925092565b6000602082840312156112ab57600080fd5b60006111ac8484611164565b600080604083850312156112ca57600080fd5b60006111ea8585611164565b600080600080608085870312156112ec57600080fd5b60006112f88787611164565b945050602085013567ffffffffffffffff81111561131557600080fd5b61132187828801611110565b935050604061133287828801611164565b925050606085013567ffffffffffffffff81111561134f57600080fd5b61135b87828801611110565b91505092959194509250565b6113708161165c565b82525050565b600061138182611658565b80845261139581602086016020860161166d565b61139e8161169d565b9093016020019392505050565b6000815460018116600081146113c857600181146113e657611422565b60028204607f16855260ff1982166020860152604085019250611422565b600282048086526020860195506113fc8561164c565b60005b8281101561141b578154888201526001909101906020016113ff565b8701945050505b505092915050565b601681527f496e76616c6964207072696f72697479206c6576656c00000000000000000000602082015260400190565b600f81527f496e76616c6964207461736b2049440000000000000000000000000000000000602082015260400190565b601581527f5461736b20686173206265656e2064656c657465640000000000000000000000602082015260400190565b611370816110ea565b60208101610cc48284611367565b602080825281016111708184611376565b60208082528101610cc48161142a565b60208082528101610cc48161145a565b60208082528101610cc48161148a565b60208101610cc482846114ba565b6040810161152e82856114ba565b6111706020830184611367565b60c0810161154982896114ba565b818103602083015261155b8188611376565b905061156a6040830187611367565b6115776060830186611367565b61158460808301856114ba565b81810360a08301526115968184611376565b98975050505050505050565b60c081016115b082896114ba565b81810360208301526115c281886113ab565b90506115d16040830187611367565b6115de6060830186611367565b6115eb60808301856114ba565b81810360a083015261159681846113ab565b60405181810167ffffffffffffffff8111828210171561161c57600080fd5b604052919050565b600067ffffffffffffffff82111561163b57600080fd5b506020601f91909101601f19160190565b60009081526020902090565b5190565b151590565b82818337506000910152565b60005b83811015611688578181015183820152602001611670565b83811115611697576000848401525b50505050565b601f01601f19169056fea265627a7a72305820199849cc91c35987840845f4a22b85c80cc5f1f91d8b1aec25d64ada83326cf16c6578706572696d656e74616cf50037",
  "source": "pragma solidity ^0.5.0;\r\npragma experimental ABIEncoderV2;\r\n\r\ncontract TodoList {\r\n  uint public taskCount = 0;\r\n\r\n  struct Task {\r\n    uint id;\r\n    string content;\r\n    bool completed;\r\n    bool deleted;\r\n    uint priority;\r\n    string assignedTo;\r\n  }\r\n\r\n  mapping(uint => Task) public tasks;\r\n  string[]  public contentData;\r\n\r\n  event TaskCreated(\r\n    uint id,\r\n    string content,\r\n    bool completed,\r\n    bool deleted,\r\n    uint priority,\r\n    string assignedTo\r\n\r\n  );\r\n\r\n  event TaskCompleted(\r\n    uint id,\r\n    bool completed\r\n  );\r\n\r\n  event TaskDeleted(\r\n    uint id,\r\n    bool deleted\r\n  );\r\n\r\n  event TaskUpdated(\r\n    uint id,\r\n    string content,\r\n    bool completed,\r\n    bool deleted,\r\n    uint priority,\r\n    string assignedTo\r\n  );\r\n\r\nevent userFiltered(\r\n    string [] content\r\n  );\r\n\r\n  constructor() public {\r\n    createTask(\"Task #1\",1,\"Jay\");\r\n  }\r\n\r\n  function createTask(string memory _content,uint _priority, string memory _assignedTo) public {\r\n    require(_priority >= 1 && _priority <= 3, \"Invalid priority level\");\r\n    taskCount ++;\r\n    tasks[taskCount] = Task(taskCount, _content, false,false,_priority,_assignedTo);\r\n    emit TaskCreated(taskCount, _content, false,false,_priority,_assignedTo);\r\n  }\r\n\r\n  function deleteTask(uint _id) public {\r\n    require(_id <= taskCount, \"Invalid task ID\");\r\n    Task memory _task = tasks[_id];\r\n    _task.deleted = true;\r\n    tasks[_id] = _task;\r\n    for (uint i = _id; i<taskCount; i++){\r\n            tasks[i] = tasks[i+1];\r\n            tasks[i].id = tasks[i].id-1;\r\n        }\r\n    delete tasks[taskCount];\r\n    taskCount--;\r\n    emit TaskDeleted(_id,_task.deleted);\r\n  }\r\n\r\n  function editTask(uint _id, string memory _newContent, uint _priority,string memory _assignedTo) public {\r\n      require(_id > 0 && _id <= taskCount, \"Invalid task ID\");\r\n      require(_priority >= 1 && _priority <= 3, \"Invalid priority level\");\r\n\r\n      Task storage task = tasks[_id];\r\n      require(!task.deleted, \"Task has been deleted\");\r\n      task.content = _newContent;\r\n      task.priority = _priority;\r\n      task.assignedTo = _assignedTo;\r\n      tasks[_id] = task;\r\n      emit TaskUpdated(_id, task.content, task.completed, task.deleted,task.priority,task.assignedTo);\r\n}\r\n\r\n  function toggleCompleted(uint _id) public {\r\n    Task memory _task = tasks[_id];\r\n    _task.completed = !_task.completed;\r\n    tasks[_id] = _task;\r\n    emit TaskCompleted(_id, _task.completed);\r\n  } \r\n\r\n  function assignTask(uint _id,string memory _assignedTo) public {\r\n    require(_id > 0 && _id <= taskCount, \"Invalid task ID\");\r\n    tasks[_id].assignedTo = _assignedTo;\r\n  }\r\n\r\n  function filterByUser(string memory _assignedTo) public {\r\n    contentData = new string[](taskCount);\r\n    uint count=0;\r\n    for (uint i = 0; i<=taskCount; i++){\r\n            if (compareStrings(tasks[i].assignedTo, _assignedTo)){\r\n                contentData[count++]=tasks[i].content;\r\n            }\r\n        }\r\n  }\r\n  function compareStrings(string memory a, string memory b) public pure returns (bool) {\r\n    return keccak256(bytes(a)) == keccak256(bytes(b));\r\n}\r\n\r\n}\r\n\r\n",
  "sourcePath": "C:/Users/16575/Documents/Sem2/AdvBlockchain/Final Project/todo-List-Blockchain/contracts/TodoList.sol",
  "compiler": {
    "name": "solc",
    "version": "0.5.0+commit.1d4f565a.Emscripten.clang"
  },
  "schemaVersion": "3.0.1",
  "updatedAt": "2023-04-30T01:43:46.786Z",
  "devdoc": {
    "methods": {}
  },
  "userdoc": {
    "methods": {}
  }
}