{
  "contractName": "TodoList",
  "abi": [
    {
      "constant": true,
      "inputs": [
        {
          "name": "",
          "type": "uint256"
        }
      ],
      "name": "endtime",
      "outputs": [
        {
          "name": "",
          "type": "uint256"
        }
      ],
      "payable": false,
      "stateMutability": "view",
      "type": "function",
      "signature": "0x25a9e76a"
    },
    {
      "constant": true,
      "inputs": [
        {
          "name": "",
          "type": "uint256"
        }
      ],
      "name": "contentData",
      "outputs": [
        {
          "name": "",
          "type": "string"
        }
      ],
      "payable": false,
      "stateMutability": "view",
      "type": "function",
      "signature": "0x4e65501e"
    },
    {
      "constant": true,
      "inputs": [
        {
          "name": "",
          "type": "uint256"
        }
      ],
      "name": "tasks",
      "outputs": [
        {
          "name": "id",
          "type": "uint256"
        },
        {
          "name": "content",
          "type": "string"
        },
        {
          "name": "completed",
          "type": "bool"
        },
        {
          "name": "deleted",
          "type": "bool"
        },
        {
          "name": "priority",
          "type": "uint256"
        },
        {
          "name": "assignedTo",
          "type": "string"
        }
      ],
      "payable": false,
      "stateMutability": "view",
      "type": "function",
      "signature": "0x8d977672"
    },
    {
      "constant": true,
      "inputs": [],
      "name": "taskCount",
      "outputs": [
        {
          "name": "",
          "type": "uint256"
        }
      ],
      "payable": false,
      "stateMutability": "view",
      "type": "function",
      "signature": "0xb6cb58a5"
    },
    {
      "constant": true,
      "inputs": [
        {
          "name": "",
          "type": "uint256"
        }
      ],
      "name": "starttime",
      "outputs": [
        {
          "name": "",
          "type": "uint256"
        }
      ],
      "payable": false,
      "stateMutability": "view",
      "type": "function",
      "signature": "0xda5b7385"
    },
    {
      "inputs": [],
      "payable": false,
      "stateMutability": "nonpayable",
      "type": "constructor",
      "signature": "constructor"
    },
    {
      "anonymous": false,
      "inputs": [
        {
          "indexed": false,
          "name": "id",
          "type": "uint256"
        },
        {
          "indexed": false,
          "name": "content",
          "type": "string"
        },
        {
          "indexed": false,
          "name": "completed",
          "type": "bool"
        },
        {
          "indexed": false,
          "name": "deleted",
          "type": "bool"
        },
        {
          "indexed": false,
          "name": "priority",
          "type": "uint256"
        },
        {
          "indexed": false,
          "name": "assignedTo",
          "type": "string"
        }
      ],
      "name": "TaskCreated",
      "type": "event",
      "signature": "0x2b6d2cd46eae4ae36e1b6c592e677fc56480e39c8a344490a3a3407df5c64254"
    },
    {
      "anonymous": false,
      "inputs": [
        {
          "indexed": false,
          "name": "id",
          "type": "uint256"
        },
        {
          "indexed": false,
          "name": "completed",
          "type": "bool"
        }
      ],
      "name": "TaskCompleted",
      "type": "event",
      "signature": "0xe21fa966ca5cd02748c0752352d18c48165e61cb55b4c29cccf924b5a95fcff1"
    },
    {
      "anonymous": false,
      "inputs": [
        {
          "indexed": false,
          "name": "id",
          "type": "uint256"
        },
        {
          "indexed": false,
          "name": "deleted",
          "type": "bool"
        }
      ],
      "name": "TaskDeleted",
      "type": "event",
      "signature": "0x572597a6891de3ffc5ddb25adeb4871a3bf451676410ca50eed9524c49bdc0e6"
    },
    {
      "anonymous": false,
      "inputs": [
        {
          "indexed": false,
          "name": "id",
          "type": "uint256"
        },
        {
          "indexed": false,
          "name": "content",
          "type": "string"
        },
        {
          "indexed": false,
          "name": "completed",
          "type": "bool"
        },
        {
          "indexed": false,
          "name": "deleted",
          "type": "bool"
        },
        {
          "indexed": false,
          "name": "priority",
          "type": "uint256"
        },
        {
          "indexed": false,
          "name": "assignedTo",
          "type": "string"
        }
      ],
      "name": "TaskUpdated",
      "type": "event",
      "signature": "0xfcd7c53193bf22f3e316d499e629d026f1e9852a57b892ef9dffd095efb6f6cd"
    },
    {
      "anonymous": false,
      "inputs": [
        {
          "indexed": false,
          "name": "content",
          "type": "string[]"
        }
      ],
      "name": "userFiltered",
      "type": "event",
      "signature": "0xdd385d6ac24ccdf847c080433d6ac6ca7050dd3fb0a5d06cfcf5e4327fdf3daf"
    },
    {
      "constant": false,
      "inputs": [
        {
          "name": "_content",
          "type": "string"
        },
        {
          "name": "_priority",
          "type": "uint256"
        },
        {
          "name": "_assignedTo",
          "type": "string"
        }
      ],
      "name": "createTask",
      "outputs": [],
      "payable": false,
      "stateMutability": "nonpayable",
      "type": "function",
      "signature": "0x16c7ac90"
    },
    {
      "constant": false,
      "inputs": [
        {
          "name": "_id",
          "type": "uint256"
        }
      ],
      "name": "deleteTask",
      "outputs": [],
      "payable": false,
      "stateMutability": "nonpayable",
      "type": "function",
      "signature": "0x560f3192"
    },
    {
      "constant": false,
      "inputs": [
        {
          "name": "_id",
          "type": "uint256"
        },
        {
          "name": "_newContent",
          "type": "string"
        },
        {
          "name": "_priority",
          "type": "uint256"
        },
        {
          "name": "_assignedTo",
          "type": "string"
        }
      ],
      "name": "editTask",
      "outputs": [],
      "payable": false,
      "stateMutability": "nonpayable",
      "type": "function",
      "signature": "0xe023b1d1"
    },
    {
      "constant": false,
      "inputs": [
        {
          "name": "_id",
          "type": "uint256"
        }
      ],
      "name": "toggleCompleted",
      "outputs": [],
      "payable": false,
      "stateMutability": "nonpayable",
      "type": "function",
      "signature": "0x455f5024"
    },
    {
      "constant": false,
      "inputs": [
        {
          "name": "_id",
          "type": "uint256"
        },
        {
          "name": "_assignedTo",
          "type": "string"
        }
      ],
      "name": "assignTask",
      "outputs": [],
      "payable": false,
      "stateMutability": "nonpayable",
      "type": "function",
      "signature": "0xe6961389"
    },
    {
      "constant": false,
      "inputs": [
        {
          "name": "_assignedTo",
          "type": "string"
        }
      ],
      "name": "filterByUser",
      "outputs": [],
      "payable": false,
      "stateMutability": "nonpayable",
      "type": "function",
      "signature": "0x3871a8c7"
    },
    {
      "constant": true,
      "inputs": [
        {
          "name": "a",
          "type": "string"
        },
        {
          "name": "b",
          "type": "string"
        }
      ],
      "name": "compareStrings",
      "outputs": [
        {
          "name": "",
          "type": "bool"
        }
      ],
      "payable": false,
      "stateMutability": "pure",
      "type": "function",
      "signature": "0xbed34bba"
    }
  ],
  "bytecode": "0x6080604052600080553480156200001557600080fd5b506200009d6040805190810160405280600781526020017f5461736b2023310000000000000000000000000000000000000000000000000081525060016040805190810160405280600381526020017f4a61790000000000000000000000000000000000000000000000000000000000815250620000a3640100000000026401000000009004565b6200040d565b60018210158015620000b6575060038211155b1515620000fa576040517f08c379a0000000000000000000000000000000000000000000000000000000008152600401620000f1906200033c565b60405180910390fd5b6000805460019081018083558252600360209081526040808420429055805160c0810182528454808252818401898152828401879052606083018790526080830189905260a0830188905290865284845291909420845181559051805191936200016b939085019291019062000210565b506040820151600282018054606085015115156101000261ff001993151560ff1990921691909117929092169190911790556080820151600382015560a08201518051620001c491600484019160209091019062000210565b5050600080546040517f2b6d2cd46eae4ae36e1b6c592e677fc56480e39c8a344490a3a3407df5c6425493506200020392879181908890889062000354565b60405180910390a1505050565b828054600181600116156101000203166002900490600052602060002090601f016020900481019282601f106200025357805160ff191683800117855562000283565b8280016001018555821562000283579182015b828111156200028357825182559160200191906001019062000266565b506200029192915062000295565b5090565b620002b291905b808211156200029157600081556001016200029c565b90565b620002c081620003cb565b82525050565b6000620002d382620003c7565b808452620002e9816020860160208601620003d0565b620002f48162000403565b9093016020019392505050565b601681527f496e76616c6964207072696f72697479206c6576656c00000000000000000000602082015260400190565b620002c081620002b2565b602080825281016200034e8162000301565b92915050565b60c0810162000364828962000331565b8181036020830152620003788188620002c6565b9050620003896040830187620002b5565b620003986060830186620002b5565b620003a7608083018562000331565b81810360a0830152620003bb8184620002c6565b98975050505050505050565b5190565b151590565b60005b83811015620003ed578181015183820152602001620003d3565b83811115620003fd576000848401525b50505050565b601f01601f191690565b611778806200041d6000396000f3fe6080604052600436106100b95763ffffffff7c010000000000000000000000000000000000000000000000000000000060003504166316c7ac9081146100be57806325a9e76a146100e05780633871a8c714610116578063455f5024146101365780634e65501e14610156578063560f3192146101835780638d977672146101a3578063b6cb58a5146101d5578063bed34bba146101ea578063da5b738514610217578063e023b1d114610237578063e696138914610257575b600080fd5b3480156100ca57600080fd5b506100de6100d93660046112b4565b610277565b005b3480156100ec57600080fd5b506101006100fb366004611330565b6103c3565b60405161010d91906115a9565b60405180910390f35b34801561012257600080fd5b506100de61013136600461120e565b6103d5565b34801561014257600080fd5b506100de610151366004611330565b610539565b34801561016257600080fd5b50610176610171366004611330565b61079e565b60405161010d9190611568565b34801561018f57600080fd5b506100de61019e366004611330565b610845565b3480156101af57600080fd5b506101c36101be366004611330565b610bdd565b60405161010d969594939291906115d2565b3480156101e157600080fd5b50610100610d2d565b3480156101f657600080fd5b5061020a61020536600461124b565b610d33565b60405161010d919061155a565b34801561022357600080fd5b50610100610232366004611330565b610d4f565b34801561024357600080fd5b506100de61025236600461136d565b610d61565b34801561026357600080fd5b506100de61027236600461134e565b610f45565b60018210158015610289575060038211155b15156102b35760405160e560020a62461bcd0281526004016102aa90611579565b60405180910390fd5b6000805460019081018083558252600360209081526040808420429055805160c0810182528454808252818401898152828401879052606083018790526080830189905260a0830188905290865284845291909420845181559051805191936103229390850192910190610f99565b506040820151600282018054606085015115156101000261ff001993151560ff1990921691909117929092169190911790556080820151600382015560a08201518051610379916004840191602090910190610f99565b5050600080546040517f2b6d2cd46eae4ae36e1b6c592e677fc56480e39c8a344490a3a3407df5c6425493506103b69287918190889088906115d2565b60405180910390a1505050565b60046020526000908152604090205481565b60005460405190808252806020026020018201604052801561040b57816020015b60608152602001906001900390816103f65790505b50805161042091600291602090910190611017565b506000805b60005481116105345760008181526001602081815260409283902060040180548451600294821615610100026000190190911693909304601f81018390048302840183019094528383526104d19390918301828280156104c65780601f1061049b576101008083540402835291602001916104c6565b820191906000526020600020905b8154815290600101906020018083116104a957829003601f168201915b505050505084610d33565b1561052c576001600082815260200190815260200160002060010160028380600101945081548110151561050157fe5b90600052602060002001908054600181600116156101000203166002900461052a929190611070565b505b600101610425565b505050565b6105416110e5565b600082815260016020818152604092839020835160c0810185528154815281840180548651600296821615610100026000190190911695909504601f810185900485028601850190965285855290949193858401939092908301828280156105ea5780601f106105bf576101008083540402835291602001916105ea565b820191906000526020600020905b8154815290600101906020018083116105cd57829003601f168201915b505050918352505060028281015460ff80821615156020808601919091526101009283900490911615156040808601919091526003860154606086015260048601805482516001821615909502600019011694909404601f8101839004830284018301909152808352608090940193919291908301828280156106ae5780601f10610683576101008083540402835291602001916106ae565b820191906000526020600020905b81548152906001019060200180831161069157829003601f168201915b50505091909252505050604080820180511590526000805481526004602090815282822042905585825260018082529290912083518155818401518051949550859491936107029390850192910190610f99565b506040820151600282018054606085015115156101000261ff001993151560ff1990921691909117929092169190911790556080820151600382015560a08201518051610759916004840191602090910190610f99565b509050507fe21fa966ca5cd02748c0752352d18c48165e61cb55b4c29cccf924b5a95fcff18282604001516040516107929291906115b7565b60405180910390a15050565b60028054829081106107ac57fe5b600091825260209182902001805460408051601f600260001961010060018716150201909416939093049283018590048502810185019091528181529350909183018282801561083d5780601f106108125761010080835404028352916020019161083d565b820191906000526020600020905b81548152906001019060200180831161082057829003601f168201915b505050505081565b60005481111561086a5760405160e560020a62461bcd0281526004016102aa90611589565b6108726110e5565b600082815260016020818152604092839020835160c0810185528154815281840180548651600296821615610100026000190190911695909504601f8101859004850286018501909652858552909491938584019390929083018282801561091b5780601f106108f05761010080835404028352916020019161091b565b820191906000526020600020905b8154815290600101906020018083116108fe57829003601f168201915b505050918352505060028281015460ff80821615156020808601919091526101009283900490911615156040808601919091526003860154606086015260048601805482516001821615909502600019011694909404601f8101839004830284018301909152808352608090940193919291908301828280156109df5780601f106109b4576101008083540402835291602001916109df565b820191906000526020600020905b8154815290600101906020018083116109c257829003601f168201915b505050919092525050600160608301819052600085815260208281526040909120845181558185015180519596508695919450610a20938501920190610f99565b506040820151600282018054606085015115156101000261ff001993151560ff1990921691909117929092169190911790556080820151600382015560a08201518051610a77916004840191602090910190610f99565b50839150505b600054811015610b54576001818101600090815260208290526040808220848352912081548155818301805492939192610acb92848101929160029181161561010002600019011604611070565b5060028281018054838301805460ff191660ff928316151517808255925461ff001990931661010093849004909216151583029190911790556003808501549084015560048085018054610b32949286019391926001821615909202600019011604611070565b5050506000818152600160208190526040909120805460001901905501610a7d565b5060008054815260016020819052604082208281559190610b7790830182611120565b60028201805461ffff19169055600060038301819055610b9b906004840190611120565b50506000805460001901905560608101516040517f572597a6891de3ffc5ddb25adeb4871a3bf451676410ca50eed9524c49bdc0e691610792918591906115b7565b600160208181526000928352604092839020805481840180548651600296821615610100026000190190911695909504601f81018590048502860185019096528585529094919392909190830182828015610c795780601f10610c4e57610100808354040283529160200191610c79565b820191906000526020600020905b815481529060010190602001808311610c5c57829003601f168201915b505050506002838101546003850154600486018054604080516020610100600185161581026000190190941697909704601f8101889004880282018801909252818152979860ff808716999390960490951696509294909290830182828015610d235780601f10610cf857610100808354040283529160200191610d23565b820191906000526020600020905b815481529060010190602001808311610d0657829003601f168201915b5050505050905086565b60005481565b6000818051906020012083805190602001201490505b92915050565b60036020526000908152604090205481565b600084118015610d7357506000548411155b1515610d945760405160e560020a62461bcd0281526004016102aa90611589565b60018210158015610da6575060038211155b1515610dc75760405160e560020a62461bcd0281526004016102aa90611579565b60008481526001602052604090206002810154610100900460ff1615610e025760405160e560020a62461bcd0281526004016102aa90611599565b8351610e179060018301906020870190610f99565b50600381018390558151610e349060048301906020850190610f99565b5080600160008781526020019081526020016000206000820154816000015560018201816001019080546001816001161561010002031660029004610e7a929190611070565b5060028281018054838301805460ff191660ff928316151517808255925461ff001990931661010093849004909216151583029190911790556003808501549084015560048085018054610ee1949286019391926001821615909202600019011604611070565b505050600281015460038201546040517ffcd7c53193bf22f3e316d499e629d026f1e9852a57b892ef9dffd095efb6f6cd92610f36928992600187019260ff8082169361010090920416916004890190611639565b60405180910390a15050505050565b600082118015610f5757506000548211155b1515610f785760405160e560020a62461bcd0281526004016102aa90611589565b60008281526001602090815260409091208251610534926004909201918401905b828054600181600116156101000203166002900490600052602060002090601f016020900481019282601f10610fda57805160ff1916838001178555611007565b82800160010185558215611007579182015b82811115611007578251825591602001919060010190610fec565b50611013929150611167565b5090565b828054828255906000526020600020908101928215611064579160200282015b828111156110645782518051611054918491602090910190610f99565b5091602001919060010190611037565b50611013929150611184565b828054600181600116156101000203166002900490600052602060002090601f016020900481019282601f106110a95780548555611007565b8280016001018555821561100757600052602060002091601f016020900482015b828111156110075782548255916001019190600101906110ca565b60c060405190810160405280600081526020016060815260200160001515815260200160001515815260200160008152602001606081525090565b50805460018160011615610100020316600290046000825580601f106111465750611164565b601f0160209004906000526020600020908101906111649190611167565b50565b61118191905b80821115611013576000815560010161116d565b90565b61118191905b8082111561101357600061119e8282611120565b5060010161118a565b6000601f820183136111b857600080fd5b81356111cb6111c6826116bb565b611694565b915080825260208301602083018583830111156111e757600080fd5b6111f28382846116f8565b50505092915050565b60006112078235611181565b9392505050565b60006020828403121561122057600080fd5b813567ffffffffffffffff81111561123757600080fd5b611243848285016111a7565b949350505050565b6000806040838503121561125e57600080fd5b823567ffffffffffffffff81111561127557600080fd5b611281858286016111a7565b925050602083013567ffffffffffffffff81111561129e57600080fd5b6112aa858286016111a7565b9150509250929050565b6000806000606084860312156112c957600080fd5b833567ffffffffffffffff8111156112e057600080fd5b6112ec868287016111a7565b93505060206112fd868287016111fb565b925050604084013567ffffffffffffffff81111561131a57600080fd5b611326868287016111a7565b9150509250925092565b60006020828403121561134257600080fd5b600061124384846111fb565b6000806040838503121561136157600080fd5b600061128185856111fb565b6000806000806080858703121561138357600080fd5b600061138f87876111fb565b945050602085013567ffffffffffffffff8111156113ac57600080fd5b6113b8878288016111a7565b93505060406113c9878288016111fb565b925050606085013567ffffffffffffffff8111156113e657600080fd5b6113f2878288016111a7565b91505092959194509250565b611407816116f3565b82525050565b6000611418826116ef565b80845261142c816020860160208601611704565b61143581611734565b9093016020019392505050565b60008154600181166000811461145f576001811461147d576114b9565b60028204607f16855260ff19821660208601526040850192506114b9565b60028204808652602086019550611493856116e3565b60005b828110156114b257815488820152600190910190602001611496565b8701945050505b505092915050565b601681527f496e76616c6964207072696f72697479206c6576656c00000000000000000000602082015260400190565b600f81527f496e76616c6964207461736b2049440000000000000000000000000000000000602082015260400190565b601581527f5461736b20686173206265656e2064656c657465640000000000000000000000602082015260400190565b61140781611181565b60208101610d4982846113fe565b60208082528101611207818461140d565b60208082528101610d49816114c1565b60208082528101610d49816114f1565b60208082528101610d4981611521565b60208101610d498284611551565b604081016115c58285611551565b61120760208301846113fe565b60c081016115e08289611551565b81810360208301526115f2818861140d565b905061160160408301876113fe565b61160e60608301866113fe565b61161b6080830185611551565b81810360a083015261162d818461140d565b98975050505050505050565b60c081016116478289611551565b81810360208301526116598188611442565b905061166860408301876113fe565b61167560608301866113fe565b6116826080830185611551565b81810360a083015261162d8184611442565b60405181810167ffffffffffffffff811182821017156116b357600080fd5b604052919050565b600067ffffffffffffffff8211156116d257600080fd5b506020601f91909101601f19160190565b60009081526020902090565b5190565b151590565b82818337506000910152565b60005b8381101561171f578181015183820152602001611707565b8381111561172e576000848401525b50505050565b601f01601f19169056fea265627a7a72305820927334be26a8fa813eb78e3032389ae11d56865bac50b12848fca50caddd9ab76c6578706572696d656e74616cf50037",
  "source": "pragma solidity ^0.5.0;\r\npragma experimental ABIEncoderV2;\r\n\r\ncontract TodoList {\r\n  uint public taskCount = 0;\r\n\r\n  struct Task {\r\n    uint id;\r\n    string content;\r\n    bool completed;\r\n    bool deleted;\r\n    uint priority;\r\n    string assignedTo;\r\n  }\r\n\r\n  mapping(uint => Task) public tasks;\r\n  string[]  public contentData;\r\n  mapping(uint => uint) public starttime;\r\n  mapping(uint => uint) public endtime;\r\n\r\n  event TaskCreated(\r\n    uint id,\r\n    string content,\r\n    bool completed,\r\n    bool deleted,\r\n    uint priority,\r\n    string assignedTo\r\n\r\n  );\r\n\r\n  event TaskCompleted(\r\n    uint id,\r\n    bool completed\r\n  );\r\n\r\n  event TaskDeleted(\r\n    uint id,\r\n    bool deleted\r\n  );\r\n\r\n  event TaskUpdated(\r\n    uint id,\r\n    string content,\r\n    bool completed,\r\n    bool deleted,\r\n    uint priority,\r\n    string assignedTo\r\n  );\r\n\r\nevent userFiltered(\r\n    string [] content\r\n  );\r\n\r\n  constructor() public {\r\n    createTask(\"Task #1\",1,\"Jay\");\r\n  }\r\n\r\n  function createTask(string memory _content,uint _priority, string memory _assignedTo) public {\r\n    require(_priority >= 1 && _priority <= 3, \"Invalid priority level\");\r\n    taskCount ++;\r\n    starttime[taskCount]=block.timestamp;\r\n    tasks[taskCount] = Task(taskCount, _content, false,false,_priority,_assignedTo);\r\n    emit TaskCreated(taskCount, _content, false,false,_priority,_assignedTo);\r\n  }\r\n\r\n  function deleteTask(uint _id) public {\r\n    require(_id <= taskCount, \"Invalid task ID\");\r\n    Task memory _task = tasks[_id];\r\n    _task.deleted = true;\r\n    tasks[_id] = _task;\r\n    for (uint i = _id; i<taskCount; i++){\r\n            tasks[i] = tasks[i+1];\r\n            tasks[i].id = tasks[i].id-1;\r\n        }\r\n    delete tasks[taskCount];\r\n    taskCount--;\r\n    emit TaskDeleted(_id,_task.deleted);\r\n  }\r\n\r\n  function editTask(uint _id, string memory _newContent, uint _priority,string memory _assignedTo) public {\r\n      require(_id > 0 && _id <= taskCount, \"Invalid task ID\");\r\n      require(_priority >= 1 && _priority <= 3, \"Invalid priority level\");\r\n\r\n      Task storage task = tasks[_id];\r\n      require(!task.deleted, \"Task has been deleted\");\r\n      task.content = _newContent;\r\n      task.priority = _priority;\r\n      task.assignedTo = _assignedTo;\r\n      tasks[_id] = task;\r\n      emit TaskUpdated(_id, task.content, task.completed, task.deleted,task.priority,task.assignedTo);\r\n}\r\n\r\n  function toggleCompleted(uint _id) public {\r\n    Task memory _task = tasks[_id];\r\n    _task.completed = !_task.completed;\r\n    endtime[taskCount]=block.timestamp;\r\n    tasks[_id] = _task;\r\n    emit TaskCompleted(_id, _task.completed);\r\n  } \r\n\r\n  function assignTask(uint _id,string memory _assignedTo) public {\r\n    require(_id > 0 && _id <= taskCount, \"Invalid task ID\");\r\n    tasks[_id].assignedTo = _assignedTo;\r\n  }\r\n\r\n  function filterByUser(string memory _assignedTo) public {\r\n    contentData = new string[](taskCount);\r\n    uint count=0;\r\n    for (uint i = 0; i<=taskCount; i++){\r\n            if (compareStrings(tasks[i].assignedTo, _assignedTo)){\r\n                contentData[count++]=tasks[i].content;\r\n            }\r\n        }\r\n  }\r\n  function compareStrings(string memory a, string memory b) public pure returns (bool) {\r\n    return keccak256(bytes(a)) == keccak256(bytes(b));\r\n}\r\n\r\n}\r\n\r\n",
  "sourcePath": "C:/Users/16575/Documents/Sem2/AdvBlockchain/Final Project/todo-List-Blockchain/contracts/TodoList.sol",
  "compiler": {
    "name": "solc",
    "version": "0.5.0+commit.1d4f565a.Emscripten.clang"
  },
  "schemaVersion": "3.0.1",
  "updatedAt": "2023-05-07T22:14:16.846Z",
  "devdoc": {
    "methods": {}
  },
  "userdoc": {
    "methods": {}
  }
}