{
  "contractName": "TodoList",
  "abi": [
    {
      "constant": true,
      "inputs": [
        {
          "name": "",
          "type": "uint256"
        }
      ],
      "name": "tasks",
      "outputs": [
        {
          "name": "id",
          "type": "uint256"
        },
        {
          "name": "content",
          "type": "string"
        },
        {
          "name": "completed",
          "type": "bool"
        },
        {
          "name": "deleted",
          "type": "bool"
        },
        {
          "name": "priority",
          "type": "uint256"
        }
      ],
      "payable": false,
      "stateMutability": "view",
      "type": "function",
      "signature": "0x8d977672"
    },
    {
      "constant": true,
      "inputs": [
        {
          "name": "",
          "type": "uint256"
        }
      ],
      "name": "sortedTasks",
      "outputs": [
        {
          "name": "id",
          "type": "uint256"
        },
        {
          "name": "content",
          "type": "string"
        },
        {
          "name": "completed",
          "type": "bool"
        },
        {
          "name": "deleted",
          "type": "bool"
        },
        {
          "name": "priority",
          "type": "uint256"
        }
      ],
      "payable": false,
      "stateMutability": "view",
      "type": "function",
      "signature": "0xb453e147"
    },
    {
      "constant": true,
      "inputs": [],
      "name": "taskCount",
      "outputs": [
        {
          "name": "",
          "type": "uint256"
        }
      ],
      "payable": false,
      "stateMutability": "view",
      "type": "function",
      "signature": "0xb6cb58a5"
    },
    {
      "inputs": [],
      "payable": false,
      "stateMutability": "nonpayable",
      "type": "constructor",
      "signature": "constructor"
    },
    {
      "anonymous": false,
      "inputs": [
        {
          "indexed": false,
          "name": "id",
          "type": "uint256"
        },
        {
          "indexed": false,
          "name": "content",
          "type": "string"
        },
        {
          "indexed": false,
          "name": "completed",
          "type": "bool"
        },
        {
          "indexed": false,
          "name": "deleted",
          "type": "bool"
        },
        {
          "indexed": false,
          "name": "priority",
          "type": "uint256"
        }
      ],
      "name": "TaskCreated",
      "type": "event",
      "signature": "0x97e1ec919a4208f6300a42fcfb983f08c33fb44bace494c6444dca1ddd2c53e2"
    },
    {
      "anonymous": false,
      "inputs": [
        {
          "indexed": false,
          "name": "id",
          "type": "uint256"
        },
        {
          "indexed": false,
          "name": "completed",
          "type": "bool"
        }
      ],
      "name": "TaskCompleted",
      "type": "event",
      "signature": "0xe21fa966ca5cd02748c0752352d18c48165e61cb55b4c29cccf924b5a95fcff1"
    },
    {
      "anonymous": false,
      "inputs": [
        {
          "indexed": false,
          "name": "id",
          "type": "uint256"
        },
        {
          "indexed": false,
          "name": "deleted",
          "type": "bool"
        }
      ],
      "name": "TaskDeleted",
      "type": "event",
      "signature": "0x572597a6891de3ffc5ddb25adeb4871a3bf451676410ca50eed9524c49bdc0e6"
    },
    {
      "anonymous": false,
      "inputs": [
        {
          "indexed": false,
          "name": "id",
          "type": "uint256"
        },
        {
          "indexed": false,
          "name": "content",
          "type": "string"
        },
        {
          "indexed": false,
          "name": "completed",
          "type": "bool"
        },
        {
          "indexed": false,
          "name": "deleted",
          "type": "bool"
        },
        {
          "indexed": false,
          "name": "priority",
          "type": "uint256"
        }
      ],
      "name": "TaskUpdated",
      "type": "event",
      "signature": "0x212724a8136d3c948c6b81539095bcf90dce26d61303a00824852ef5ed2940df"
    },
    {
      "anonymous": false,
      "inputs": [
        {
          "indexed": false,
          "name": "id",
          "type": "uint256"
        },
        {
          "indexed": false,
          "name": "content",
          "type": "string"
        },
        {
          "indexed": false,
          "name": "completed",
          "type": "bool"
        },
        {
          "indexed": false,
          "name": "deleted",
          "type": "bool"
        },
        {
          "indexed": false,
          "name": "priority",
          "type": "uint256"
        }
      ],
      "name": "sortedTasksCreated",
      "type": "event",
      "signature": "0x690a010c3be9cee0b4a996ca5e0ad7d9593c3947aaf721bf3b11401832f75ada"
    },
    {
      "constant": false,
      "inputs": [
        {
          "name": "_content",
          "type": "string"
        },
        {
          "name": "_priority",
          "type": "uint256"
        }
      ],
      "name": "createTask",
      "outputs": [],
      "payable": false,
      "stateMutability": "nonpayable",
      "type": "function",
      "signature": "0x04fe2b34"
    },
    {
      "constant": false,
      "inputs": [],
      "name": "getTasks",
      "outputs": [],
      "payable": false,
      "stateMutability": "nonpayable",
      "type": "function",
      "signature": "0x04a87e38"
    },
    {
      "constant": false,
      "inputs": [
        {
          "name": "_id",
          "type": "uint256"
        }
      ],
      "name": "deleteTask",
      "outputs": [],
      "payable": false,
      "stateMutability": "nonpayable",
      "type": "function",
      "signature": "0x560f3192"
    },
    {
      "constant": false,
      "inputs": [
        {
          "name": "_id",
          "type": "uint256"
        },
        {
          "name": "_newContent",
          "type": "string"
        },
        {
          "name": "_priority",
          "type": "uint256"
        }
      ],
      "name": "editTask",
      "outputs": [],
      "payable": false,
      "stateMutability": "nonpayable",
      "type": "function",
      "signature": "0x0c311eb0"
    },
    {
      "constant": false,
      "inputs": [
        {
          "name": "_id",
          "type": "uint256"
        }
      ],
      "name": "toggleCompleted",
      "outputs": [],
      "payable": false,
      "stateMutability": "nonpayable",
      "type": "function",
      "signature": "0x455f5024"
    }
  ],
  "bytecode": "0x6080604052600080553480156200001557600080fd5b5060408051808201909152600781527f5461736b2023310000000000000000000000000000000000000000000000000060208201526200006090600164010000000062000066810204565b620002ed565b6001811015801562000079575060038111155b1515620000e757604080517f08c379a000000000000000000000000000000000000000000000000000000000815260206004820152601660248201527f496e76616c6964207072696f72697479206c6576656c00000000000000000000604482015290519081900360640190fd5b6000805460019081018083556040805160a081018252828152602080820188815282840187905260608301879052608083018890529386528481529190942084518155915180519293620001449390850192919091019062000248565b5060408281015160028301805460608087015115156101000261ff001994151560ff19909316929092179390931617905560809384015160039093019290925560008054825181815292830182905292820181905292810184905260a0602080830182815287519284019290925286517f97e1ec919a4208f6300a42fcfb983f08c33fb44bace494c6444dca1ddd2c53e295889490938493899360c0840191880190808383895b8381101562000205578181015183820152602001620001eb565b50505050905090810190601f168015620002335780820380516001836020036101000a031916815260200191505b50965050505050505060405180910390a15050565b828054600181600116156101000203166002900490600052602060002090601f016020900481019282601f106200028b57805160ff1916838001178555620002bb565b82800160010185558215620002bb579182015b82811115620002bb5782518255916020019190600101906200029e565b50620002c9929150620002cd565b5090565b620002ea91905b80821115620002c95760008155600101620002d4565b90565b6111cb80620002fd6000396000f3fe60806040526004361061008d5763ffffffff7c010000000000000000000000000000000000000000000000000000000060003504166304a87e38811461009257806304fe2b34146100a95780630c311eb01461015e578063455f50241461021a578063560f3192146102445780638d9776721461026e578063b453e14714610334578063b6cb58a51461035e575b600080fd5b34801561009e57600080fd5b506100a7610385565b005b3480156100b557600080fd5b506100a7600480360360408110156100cc57600080fd5b8101906020810181356401000000008111156100e757600080fd5b8201836020820111156100f957600080fd5b8035906020019184600183028401116401000000008311171561011b57600080fd5b91908080601f01602080910402602001604051908101604052809392919081815260200183838082843760009201919091525092955050913592506105b0915050565b34801561016a57600080fd5b506100a76004803603606081101561018157600080fd5b813591908101906040810160208201356401000000008111156101a357600080fd5b8201836020820111156101b557600080fd5b803590602001918460018302840111640100000000831117156101d757600080fd5b91908080601f0160208091040260200160405190810160405280939291908181526020018383808284376000920191909152509295505091359250610774915050565b34801561022657600080fd5b506100a76004803603602081101561023d57600080fd5b5035610a49565b34801561025057600080fd5b506100a76004803603602081101561026757600080fd5b5035610bef565b34801561027a57600080fd5b506102986004803603602081101561029157600080fd5b5035610edf565b60405180868152602001806020018515151515815260200184151515158152602001838152602001828103825286818151815260200191508051906020019080838360005b838110156102f55781810151838201526020016102dd565b50505050905090810190601f1680156103225780820380516001836020036101000a031916815260200191505b50965050505050505060405180910390f35b34801561034057600080fd5b506102986004803603602081101561035757600080fd5b5035610f9e565b34801561036a57600080fd5b5061037361100e565b60408051918252519081900360200190f35b60606000546040519080825280602002602001820160405280156103b3578160200160208202803883390190505b50905060606000546040519080825280602002602001820160405280156103e4578160200160208202803883390190505b5090506000808060015b60005481116104a25780866001830381518110151561040957fe5b602090810290910181019190915260008281526001909152604090206003015485518690600019840190811061043b57fe5b60209081029091018101919091526000828152600190915260409020600390810154141561046e5760019093019261049a565b600081815260016020526040902060030154600214156104935760019092019161049a565b6001909101905b6001016103ee565b50600060608160035b600181106105a55760005b60005481101561059b578189828151811015156104cf57fe5b90602001906020020151141561059357816003141561051d5789818151811015156104f657fe5b6020908102909101810151600087815260019092526040909120556000199097019661058c565b816002141561055b57898181518110151561053457fe5b6020908102909101810151600087815260019092526040909120556000199096019561058c565b898181518110151561056957fe5b602090810290910181015160008781526001909252604090912055600019909501945b6001909401935b6001016104b6565b50600019016104ab565b505050505050505050565b600181101580156105c2575060038111155b1515610618576040805160e560020a62461bcd02815260206004820152601660248201527f496e76616c6964207072696f72697479206c6576656c00000000000000000000604482015290519081900360640190fd5b6000805460019081018083556040805160a08101825282815260208082018881528284018790526060830187905260808301889052938652848152919094208451815591518051929361067393908501929190910190611014565b5060408281015160028301805460608087015115156101000261ff001994151560ff19909316929092179390931617905560809384015160039093019290925560008054825181815292830182905292820181905292810184905260a0602080830182815287519284019290925286517f97e1ec919a4208f6300a42fcfb983f08c33fb44bace494c6444dca1ddd2c53e295889490938493899360c0840191880190808383895b8381101561073257818101518382015260200161071a565b50505050905090810190601f16801561075f5780820380516001836020036101000a031916815260200191505b50965050505050505060405180910390a15050565b60008311801561078657506000548311155b15156107dc576040805160e560020a62461bcd02815260206004820152600f60248201527f496e76616c6964207461736b2049440000000000000000000000000000000000604482015290519081900360640190fd5b600181101580156107ee575060038111155b1515610844576040805160e560020a62461bcd02815260206004820152601660248201527f496e76616c6964207072696f72697479206c6576656c00000000000000000000604482015290519081900360640190fd5b60008381526001602052604090206002810154610100900460ff16156108b4576040805160e560020a62461bcd02815260206004820152601560248201527f5461736b20686173206265656e2064656c657465640000000000000000000000604482015290519081900360640190fd5b82516108c99060018301906020860190611014565b5081816003018190555080600160008681526020019081526020016000206000820154816000015560018201816001019080546001816001161561010002031660029004610918929190611092565b5060028281018054838301805460ff191660ff928316151517808255925461ff001990931661010093849004831615158402179055600394850154938501939093558482015493850154604080518a8152868616801515928201929092529583900490941680151560608701526080860182905260a06020870181815260018981018054918216159096026000190116959095049087018190527f212724a8136d3c948c6b81539095bcf90dce26d61303a00824852ef5ed2940df968b969495929392909160c083019087908015610a315780601f10610a0657610100808354040283529160200191610a31565b820191906000526020600020905b815481529060010190602001808311610a1457829003601f168201915b5050965050505050505060405180910390a150505050565b610a51611107565b600082815260016020818152604092839020835160a0810185528154815281840180548651600296821615610100026000190190911695909504601f81018590048502860185019096528585529094919385840193909290830182828015610afa5780601f10610acf57610100808354040283529160200191610afa565b820191906000526020600020905b815481529060010190602001808311610add57829003601f168201915b5050509183525050600282015460ff80821615156020808501919091526101009092041615156040808401919091526003909301546060909201919091528282018051159052600085815260018083529290208351815583820151805194955085949193610b6e9390850192910190611014565b50604082810151600283018054606086015115156101000261ff001993151560ff199092169190911792909216919091179055608090920151600390910155818101518151848152901515602082015281517fe21fa966ca5cd02748c0752352d18c48165e61cb55b4c29cccf924b5a95fcff1929181900390910190a15050565b600054811115610c49576040805160e560020a62461bcd02815260206004820152600f60248201527f496e76616c6964207461736b2049440000000000000000000000000000000000604482015290519081900360640190fd5b610c51611107565b600082815260016020818152604092839020835160a0810185528154815281840180548651600296821615610100026000190190911695909504601f81018590048502860185019096528585529094919385840193909290830182828015610cfa5780601f10610ccf57610100808354040283529160200191610cfa565b820191906000526020600020905b815481529060010190602001808311610cdd57829003601f168201915b5050509183525050600282015460ff808216151560208085019190915261010090920416151560408084019190915260039093015460609283015260019184018290526000868152828252929092208351815583830151805194955085949193610d6993850192910190611014565b506040820151600282018054606085015115156101000261ff001993151560ff199092169190911792909216919091179055608090910151600390910155815b600054811015610e58576001818101600090815260208290526040808220848352912081548155818301805492939192610df792848101929160029181161561010002600019011604611092565b5060028281018054918301805460ff938416151560ff1990911617808255915461010090819004909316151590920261ff00199091161790556003918201549101556000818152600160208190526040909120805460001901905501610da9565b5060008054815260016020819052604082208281559190610e7b9083018261113b565b5060028101805461ffff19169055600060039091018190558054600019019055606081015160408051848152911515602083015280517f572597a6891de3ffc5ddb25adeb4871a3bf451676410ca50eed9524c49bdc0e69281900390910190a15050565b600160208181526000928352604092839020805481840180548651600296821615610100026000190190911695909504601f81018590048502860185019096528585529094919392909190830182828015610f7b5780601f10610f5057610100808354040283529160200191610f7b565b820191906000526020600020905b815481529060010190602001808311610f5e57829003601f168201915b505050506002830154600390930154919260ff8082169361010090920416915085565b60026020818152600092835260409283902080546001808301805487519281161561010002600019011695909504601f8101859004850282018501909652858152909491939092909190830182828015610f7b5780601f10610f5057610100808354040283529160200191610f7b565b60005481565b828054600181600116156101000203166002900490600052602060002090601f016020900481019282601f1061105557805160ff1916838001178555611082565b82800160010185558215611082579182015b82811115611082578251825591602001919060010190611067565b5061108e929150611182565b5090565b828054600181600116156101000203166002900490600052602060002090601f016020900481019282601f106110cb5780548555611082565b8280016001018555821561108257600052602060002091601f016020900482015b828111156110825782548255916001019190600101906110ec565b60a0604051908101604052806000815260200160608152602001600015158152602001600015158152602001600081525090565b50805460018160011615610100020316600290046000825580601f10611161575061117f565b601f01602090049060005260206000209081019061117f9190611182565b50565b61119c91905b8082111561108e5760008155600101611188565b9056fea165627a7a72305820122ac5e6de7cbded47e7f1be2a7d1d2a2490bf93f1f3364a28cac042fe1bd73c0029",
  "source": "pragma solidity ^0.5.0;\r\n\r\ncontract TodoList {\r\n  uint public taskCount = 0;\r\n\r\n  struct Task {\r\n    uint id;\r\n    string content;\r\n    bool completed;\r\n    bool deleted;\r\n    uint priority;\r\n  }\r\n\r\n  struct SortedTask {\r\n    uint id;\r\n    string content;\r\n    bool completed;\r\n    bool deleted;\r\n    uint priority;\r\n  }\r\n\r\n  \r\n\r\n  mapping(uint => Task) public tasks;\r\n  mapping(uint => SortedTask) public sortedTasks;\r\n\r\n  event TaskCreated(\r\n    uint id,\r\n    string content,\r\n    bool completed,\r\n    bool deleted,\r\n    uint priority\r\n  );\r\n\r\n  event TaskCompleted(\r\n    uint id,\r\n    bool completed\r\n  );\r\n\r\n  event TaskDeleted(\r\n    uint id,\r\n    bool deleted\r\n  );\r\n\r\n  event TaskUpdated(\r\n    uint id,\r\n    string content,\r\n    bool completed,\r\n    bool deleted,\r\n    uint priority\r\n\r\n  );\r\n\r\n  event sortedTasksCreated(\r\n    uint id,\r\n    string content,\r\n    bool completed,\r\n    bool deleted,\r\n    uint priority\r\n  );\r\n\r\n  constructor() public {\r\n    createTask(\"Task #1\",1);\r\n  }\r\n\r\n  function createTask(string memory _content,uint _priority) public {\r\n    require(_priority >= 1 && _priority <= 3, \"Invalid priority level\");\r\n    taskCount ++;\r\n    tasks[taskCount] = Task(taskCount, _content, false,false,_priority);\r\n    emit TaskCreated(taskCount, _content, false,false,_priority);\r\n  }\r\n  \r\n  function getTasks() public {\r\n  uint[] memory taskIds = new uint[](taskCount);\r\n  uint[] memory taskPriorities = new uint[](taskCount);\r\n  uint highPriorityIndex = 0;\r\n  uint mediumPriorityIndex = 0;\r\n  uint lowPriorityIndex = 0;\r\n  for (uint i = 1; i <= taskCount; i++) {\r\n    taskIds[i-1] = i;\r\n    taskPriorities[i-1] = tasks[i].priority;\r\n\r\n    if (tasks[i].priority == 3) {\r\n      highPriorityIndex++;\r\n    } else if (tasks[i].priority == 2) {\r\n      mediumPriorityIndex++;\r\n    } else {\r\n      lowPriorityIndex++;\r\n    }\r\n  }\r\n  //uint[] memory sortedTaskIds = new uint[](taskCount);\r\n  uint index = 0;\r\n  string memory _content;\r\n  uint _priority;\r\n  for (uint j = 3; j >= 1; j--) {\r\n    for (uint k = 0; k < taskCount; k++) {\r\n      if (taskPriorities[k] == j) {\r\n        \r\n        if (j == 3) {\r\n          tasks[index].id = taskIds[k];\r\n          highPriorityIndex--;\r\n          \r\n        } else if (j == 2) {\r\n          tasks[index].id = taskIds[k];\r\n          mediumPriorityIndex--;\r\n        }\r\n          else{\r\n          tasks[index].id = taskIds[k];\r\n          lowPriorityIndex--;\r\n          }\r\n          index++;\r\n      }\r\n    }\r\n   // emit sortedTasksCreated(count, _content, false,false,_priority);\r\n\r\n/*\r\n  for (uint j = 3; j >= 1; j--) {\r\n    for (uint k = 0; k < taskCount; k++) {\r\n _content=tasks[taskIds[k]].content;\r\n   _priority=tasks[taskIds[k]].priority;\r\n\r\n      if (taskPriorities[k] == j) {\r\n        \r\n        if (j == 3) {\r\n          sortedTasks[index].id = taskIds[k];\r\n          highPriorityIndex--;\r\n          \r\n        } else if (j == 2) {\r\n          sortedTasks[index].id = taskIds[k];\r\n          mediumPriorityIndex--;\r\n        }\r\n          else{\r\n          sortedTasks[index].id = taskIds[k];\r\n          lowPriorityIndex--;\r\n          }\r\n          index++;\r\n        sortedTasks[count] = SortedTask(count, _content, false,false,_priority);\r\n        count++;\r\n      }\r\n    }\r\n    \r\n    emit sortedTasksCreated(count, _content, false,false,_priority);\r\n*/\r\n  //return sortedTaskIds;\r\n\r\n  //emit sortCompleted(sortedTasks);\r\n  }\r\n  }\r\n\r\n\r\n\r\n\r\n\r\n\r\n\r\n\r\n  function deleteTask(uint _id) public {\r\n    require(_id <= taskCount, \"Invalid task ID\");\r\n    Task memory _task = tasks[_id];\r\n    _task.deleted = true;\r\n    tasks[_id] = _task;\r\n    for (uint i = _id; i<taskCount; i++){\r\n            tasks[i] = tasks[i+1];\r\n            tasks[i].id = tasks[i].id-1;\r\n        }\r\n    delete tasks[taskCount];\r\n    taskCount--;\r\n    emit TaskDeleted(_id,_task.deleted);\r\n  }\r\n\r\n\r\n\r\n  function editTask(uint _id, string memory _newContent, uint _priority) public {\r\n      require(_id > 0 && _id <= taskCount, \"Invalid task ID\");\r\n      require(_priority >= 1 && _priority <= 3, \"Invalid priority level\");\r\n\r\n      Task storage task = tasks[_id];\r\n      require(!task.deleted, \"Task has been deleted\");\r\n      task.content = _newContent;\r\n      task.priority = _priority;\r\n      tasks[_id] = task;\r\n      emit TaskUpdated(_id, task.content, task.completed, task.deleted,task.priority);\r\n}\r\n\r\n  function toggleCompleted(uint _id) public {\r\n    Task memory _task = tasks[_id];\r\n    _task.completed = !_task.completed;\r\n    tasks[_id] = _task;\r\n    emit TaskCompleted(_id, _task.completed);\r\n  }\r\n\r\n/*\r\n  function getTasks() public view returns (uint[] memory) {\r\n    uint[] memory memoryArrayid = new uint[](taskCount);\r\n    \r\n    for(uint i = 0; i < taskCount; i++) {\r\n        memoryArrayid[i] = tasks[i].id;\r\n    }\r\n    return memoryArrayid;\r\n\r\n  }\r\n  \r\n*/\r\n  //function getTasks() public view returns (uint[] memory) {\r\n \r\n\r\n}\r\n\r\n",
  "sourcePath": "C:/Users/16575/Documents/Sem2/AdvBlockchain/Final Project/todo-List-Blockchain/contracts/TodoList.sol",
  "compiler": {
    "name": "solc",
    "version": "0.5.0+commit.1d4f565a.Emscripten.clang"
  },
  "schemaVersion": "3.0.1",
  "updatedAt": "2023-04-29T18:59:29.080Z",
  "devdoc": {
    "methods": {}
  },
  "userdoc": {
    "methods": {}
  }
}