{
  "contractName": "TodoList",
  "abi": [
    {
      "constant": true,
      "inputs": [
        {
          "name": "",
          "type": "uint256"
        }
      ],
      "name": "tasks",
      "outputs": [
        {
          "name": "id",
          "type": "uint256"
        },
        {
          "name": "content",
          "type": "string"
        },
        {
          "name": "completed",
          "type": "bool"
        },
        {
          "name": "deleted",
          "type": "bool"
        },
        {
          "name": "priority",
          "type": "uint256"
        }
      ],
      "payable": false,
      "stateMutability": "view",
      "type": "function",
      "signature": "0x8d977672"
    },
    {
      "constant": true,
      "inputs": [
        {
          "name": "",
          "type": "uint256"
        }
      ],
      "name": "sortedTasks",
      "outputs": [
        {
          "name": "id",
          "type": "uint256"
        },
        {
          "name": "content",
          "type": "string"
        },
        {
          "name": "completed",
          "type": "bool"
        },
        {
          "name": "deleted",
          "type": "bool"
        },
        {
          "name": "priority",
          "type": "uint256"
        }
      ],
      "payable": false,
      "stateMutability": "view",
      "type": "function",
      "signature": "0xb453e147"
    },
    {
      "constant": true,
      "inputs": [],
      "name": "taskCount",
      "outputs": [
        {
          "name": "",
          "type": "uint256"
        }
      ],
      "payable": false,
      "stateMutability": "view",
      "type": "function",
      "signature": "0xb6cb58a5"
    },
    {
      "inputs": [],
      "payable": false,
      "stateMutability": "nonpayable",
      "type": "constructor",
      "signature": "constructor"
    },
    {
      "anonymous": false,
      "inputs": [
        {
          "indexed": false,
          "name": "id",
          "type": "uint256"
        },
        {
          "indexed": false,
          "name": "content",
          "type": "string"
        },
        {
          "indexed": false,
          "name": "completed",
          "type": "bool"
        },
        {
          "indexed": false,
          "name": "deleted",
          "type": "bool"
        },
        {
          "indexed": false,
          "name": "priority",
          "type": "uint256"
        }
      ],
      "name": "TaskCreated",
      "type": "event",
      "signature": "0x97e1ec919a4208f6300a42fcfb983f08c33fb44bace494c6444dca1ddd2c53e2"
    },
    {
      "anonymous": false,
      "inputs": [
        {
          "indexed": false,
          "name": "id",
          "type": "uint256"
        },
        {
          "indexed": false,
          "name": "completed",
          "type": "bool"
        }
      ],
      "name": "TaskCompleted",
      "type": "event",
      "signature": "0xe21fa966ca5cd02748c0752352d18c48165e61cb55b4c29cccf924b5a95fcff1"
    },
    {
      "anonymous": false,
      "inputs": [
        {
          "indexed": false,
          "name": "id",
          "type": "uint256"
        },
        {
          "indexed": false,
          "name": "deleted",
          "type": "bool"
        }
      ],
      "name": "TaskDeleted",
      "type": "event",
      "signature": "0x572597a6891de3ffc5ddb25adeb4871a3bf451676410ca50eed9524c49bdc0e6"
    },
    {
      "anonymous": false,
      "inputs": [
        {
          "indexed": false,
          "name": "id",
          "type": "uint256"
        },
        {
          "indexed": false,
          "name": "content",
          "type": "string"
        },
        {
          "indexed": false,
          "name": "completed",
          "type": "bool"
        },
        {
          "indexed": false,
          "name": "deleted",
          "type": "bool"
        },
        {
          "indexed": false,
          "name": "priority",
          "type": "uint256"
        }
      ],
      "name": "TaskUpdated",
      "type": "event",
      "signature": "0x212724a8136d3c948c6b81539095bcf90dce26d61303a00824852ef5ed2940df"
    },
    {
      "anonymous": false,
      "inputs": [
        {
          "indexed": false,
          "name": "id",
          "type": "uint256"
        },
        {
          "indexed": false,
          "name": "content",
          "type": "string"
        },
        {
          "indexed": false,
          "name": "completed",
          "type": "bool"
        },
        {
          "indexed": false,
          "name": "deleted",
          "type": "bool"
        },
        {
          "indexed": false,
          "name": "priority",
          "type": "uint256"
        }
      ],
      "name": "sortedTasksCreated",
      "type": "event",
      "signature": "0x690a010c3be9cee0b4a996ca5e0ad7d9593c3947aaf721bf3b11401832f75ada"
    },
    {
      "constant": false,
      "inputs": [
        {
          "name": "_content",
          "type": "string"
        },
        {
          "name": "_priority",
          "type": "uint256"
        }
      ],
      "name": "createTask",
      "outputs": [],
      "payable": false,
      "stateMutability": "nonpayable",
      "type": "function",
      "signature": "0x04fe2b34"
    },
    {
      "constant": false,
      "inputs": [],
      "name": "getTasks",
      "outputs": [],
      "payable": false,
      "stateMutability": "nonpayable",
      "type": "function",
      "signature": "0x04a87e38"
    },
    {
      "constant": false,
      "inputs": [
        {
          "name": "_id",
          "type": "uint256"
        }
      ],
      "name": "deleteTask",
      "outputs": [],
      "payable": false,
      "stateMutability": "nonpayable",
      "type": "function",
      "signature": "0x560f3192"
    },
    {
      "constant": false,
      "inputs": [
        {
          "name": "_id",
          "type": "uint256"
        },
        {
          "name": "_newContent",
          "type": "string"
        },
        {
          "name": "_priority",
          "type": "uint256"
        }
      ],
      "name": "editTask",
      "outputs": [],
      "payable": false,
      "stateMutability": "nonpayable",
      "type": "function",
      "signature": "0x0c311eb0"
    },
    {
      "constant": false,
      "inputs": [
        {
          "name": "_id",
          "type": "uint256"
        }
      ],
      "name": "toggleCompleted",
      "outputs": [],
      "payable": false,
      "stateMutability": "nonpayable",
      "type": "function",
      "signature": "0x455f5024"
    }
  ],
  "bytecode": "0x6080604052600080553480156200001557600080fd5b5060408051808201909152600781527f5461736b2023310000000000000000000000000000000000000000000000000060208201526200006090600164010000000062000066810204565b620002ed565b6001811015801562000079575060038111155b1515620000e757604080517f08c379a000000000000000000000000000000000000000000000000000000000815260206004820152601660248201527f496e76616c6964207072696f72697479206c6576656c00000000000000000000604482015290519081900360640190fd5b6000805460019081018083556040805160a081018252828152602080820188815282840187905260608301879052608083018890529386528481529190942084518155915180519293620001449390850192919091019062000248565b5060408281015160028301805460608087015115156101000261ff001994151560ff19909316929092179390931617905560809384015160039093019290925560008054825181815292830182905292820181905292810184905260a0602080830182815287519284019290925286517f97e1ec919a4208f6300a42fcfb983f08c33fb44bace494c6444dca1ddd2c53e295889490938493899360c0840191880190808383895b8381101562000205578181015183820152602001620001eb565b50505050905090810190601f168015620002335780820380516001836020036101000a031916815260200191505b50965050505050505060405180910390a15050565b828054600181600116156101000203166002900490600052602060002090601f016020900481019282601f106200028b57805160ff1916838001178555620002bb565b82800160010185558215620002bb579182015b82811115620002bb5782518255916020019190600101906200029e565b50620002c9929150620002cd565b5090565b620002ea91905b80821115620002c95760008155600101620002d4565b90565b61141c80620002fd6000396000f3fe60806040526004361061008d5763ffffffff7c010000000000000000000000000000000000000000000000000000000060003504166304a87e38811461009257806304fe2b34146100a95780630c311eb01461015e578063455f50241461021a578063560f3192146102445780638d9776721461026e578063b453e14714610334578063b6cb58a51461035e575b600080fd5b34801561009e57600080fd5b506100a7610385565b005b3480156100b557600080fd5b506100a7600480360360408110156100cc57600080fd5b8101906020810181356401000000008111156100e757600080fd5b8201836020820111156100f957600080fd5b8035906020019184600183028401116401000000008311171561011b57600080fd5b91908080601f0160208091040260200160405190810160405280939291908181526020018383808284376000920191909152509295505091359250610801915050565b34801561016a57600080fd5b506100a76004803603606081101561018157600080fd5b813591908101906040810160208201356401000000008111156101a357600080fd5b8201836020820111156101b557600080fd5b803590602001918460018302840111640100000000831117156101d757600080fd5b91908080601f01602080910402602001604051908101604052809392919081815260200183838082843760009201919091525092955050913592506109c5915050565b34801561022657600080fd5b506100a76004803603602081101561023d57600080fd5b5035610c9a565b34801561025057600080fd5b506100a76004803603602081101561026757600080fd5b5035610e40565b34801561027a57600080fd5b506102986004803603602081101561029157600080fd5b5035611130565b60405180868152602001806020018515151515815260200184151515158152602001838152602001828103825286818151815260200191508051906020019080838360005b838110156102f55781810151838201526020016102dd565b50505050905090810190601f1680156103225780820380516001836020036101000a031916815260200191505b50965050505050505060405180910390f35b34801561034057600080fd5b506102986004803603602081101561035757600080fd5b50356111ef565b34801561036a57600080fd5b5061037361125f565b60408051918252519081900360200190f35b6000805460408051828152602080840282010190915260609180156103b4578160200160208202803883390190505b50905060606000546040519080825280602002602001820160405280156103e5578160200160208202803883390190505b5090506000808060015b60005481116104a35780866001830381518110151561040a57fe5b602090810290910181019190915260008281526001909152604090206003015485518690600019840190811061043c57fe5b60209081029091018101919091526000828152600190915260409020600390810154141561046f5760019093019261049b565b600081815260016020526040902060030154600214156104945760019092019161049b565b6001909101905b6001016103ef565b50600060608160035b600181106107f55760005b60005481101561072957600160008b838151811015156104d357fe5b9060200190602002015181526020019081526020016000206001018054600181600116156101000203166002900480601f0160208091040260200160405190810160405280929190818152602001828054600181600116156101000203166002900480156105825780601f1061055757610100808354040283529160200191610582565b820191906000526020600020905b81548152906001019060200180831161056557829003601f168201915b50505050509350600160008b8381518110151561059b57fe5b9060200190602002015181526020019081526020016000206003015492508189828151811015156105c857fe5b9060200190602002015114156107215781600314156106165789818151811015156105ef57fe5b60209081029091018101516000878152600290925260409091205560001990970196610685565b816002141561065457898181518110151561062d57fe5b60209081029091018101516000878152600290925260409091205560001990960195610685565b898181518110151561066257fe5b602090810290910181015160008781526002909252604090912055600019909501945b6040805160a0810182528c81526020808201878152600083850181905260608401819052608084018890528f8152600283529390932082518155925180516001998a01999394936106db93908501920190611265565b506040820151600282018054606085015115156101000261ff001993151560ff19909216919091179290921691909117905560809091015160039091015560019a909a01995b6001016104b7565b507f690a010c3be9cee0b4a996ca5e0ad7d9593c3947aaf721bf3b11401832f75ada8a846000808660405180868152602001806020018515151515815260200184151515158152602001838152602001828103825286818151815260200191508051906020019080838360005b838110156107ae578181015183820152602001610796565b50505050905090810190601f1680156107db5780820380516001836020036101000a031916815260200191505b50965050505050505060405180910390a1600019016104ac565b50505050505050505050565b60018110158015610813575060038111155b1515610869576040805160e560020a62461bcd02815260206004820152601660248201527f496e76616c6964207072696f72697479206c6576656c00000000000000000000604482015290519081900360640190fd5b6000805460019081018083556040805160a0810182528281526020808201888152828401879052606083018790526080830188905293865284815291909420845181559151805192936108c493908501929190910190611265565b5060408281015160028301805460608087015115156101000261ff001994151560ff19909316929092179390931617905560809384015160039093019290925560008054825181815292830182905292820181905292810184905260a0602080830182815287519284019290925286517f97e1ec919a4208f6300a42fcfb983f08c33fb44bace494c6444dca1ddd2c53e295889490938493899360c0840191880190808383895b8381101561098357818101518382015260200161096b565b50505050905090810190601f1680156109b05780820380516001836020036101000a031916815260200191505b50965050505050505060405180910390a15050565b6000831180156109d757506000548311155b1515610a2d576040805160e560020a62461bcd02815260206004820152600f60248201527f496e76616c6964207461736b2049440000000000000000000000000000000000604482015290519081900360640190fd5b60018110158015610a3f575060038111155b1515610a95576040805160e560020a62461bcd02815260206004820152601660248201527f496e76616c6964207072696f72697479206c6576656c00000000000000000000604482015290519081900360640190fd5b60008381526001602052604090206002810154610100900460ff1615610b05576040805160e560020a62461bcd02815260206004820152601560248201527f5461736b20686173206265656e2064656c657465640000000000000000000000604482015290519081900360640190fd5b8251610b1a9060018301906020860190611265565b5081816003018190555080600160008681526020019081526020016000206000820154816000015560018201816001019080546001816001161561010002031660029004610b699291906112e3565b5060028281018054838301805460ff191660ff928316151517808255925461ff001990931661010093849004831615158402179055600394850154938501939093558482015493850154604080518a8152868616801515928201929092529583900490941680151560608701526080860182905260a06020870181815260018981018054918216159096026000190116959095049087018190527f212724a8136d3c948c6b81539095bcf90dce26d61303a00824852ef5ed2940df968b969495929392909160c083019087908015610c825780601f10610c5757610100808354040283529160200191610c82565b820191906000526020600020905b815481529060010190602001808311610c6557829003601f168201915b5050965050505050505060405180910390a150505050565b610ca2611358565b600082815260016020818152604092839020835160a0810185528154815281840180548651600296821615610100026000190190911695909504601f81018590048502860185019096528585529094919385840193909290830182828015610d4b5780601f10610d2057610100808354040283529160200191610d4b565b820191906000526020600020905b815481529060010190602001808311610d2e57829003601f168201915b5050509183525050600282015460ff80821615156020808501919091526101009092041615156040808401919091526003909301546060909201919091528282018051159052600085815260018083529290208351815583820151805194955085949193610dbf9390850192910190611265565b50604082810151600283018054606086015115156101000261ff001993151560ff199092169190911792909216919091179055608090920151600390910155818101518151848152901515602082015281517fe21fa966ca5cd02748c0752352d18c48165e61cb55b4c29cccf924b5a95fcff1929181900390910190a15050565b600054811115610e9a576040805160e560020a62461bcd02815260206004820152600f60248201527f496e76616c6964207461736b2049440000000000000000000000000000000000604482015290519081900360640190fd5b610ea2611358565b600082815260016020818152604092839020835160a0810185528154815281840180548651600296821615610100026000190190911695909504601f81018590048502860185019096528585529094919385840193909290830182828015610f4b5780601f10610f2057610100808354040283529160200191610f4b565b820191906000526020600020905b815481529060010190602001808311610f2e57829003601f168201915b5050509183525050600282015460ff808216151560208085019190915261010090920416151560408084019190915260039093015460609283015260019184018290526000868152828252929092208351815583830151805194955085949193610fba93850192910190611265565b506040820151600282018054606085015115156101000261ff001993151560ff199092169190911792909216919091179055608090910151600390910155815b6000548110156110a9576001818101600090815260208290526040808220848352912081548155818301805492939192611048928481019291600291811615610100026000190116046112e3565b5060028281018054918301805460ff938416151560ff1990911617808255915461010090819004909316151590920261ff00199091161790556003918201549101556000818152600160208190526040909120805460001901905501610ffa565b50600080548152600160208190526040822082815591906110cc9083018261138c565b5060028101805461ffff19169055600060039091018190558054600019019055606081015160408051848152911515602083015280517f572597a6891de3ffc5ddb25adeb4871a3bf451676410ca50eed9524c49bdc0e69281900390910190a15050565b600160208181526000928352604092839020805481840180548651600296821615610100026000190190911695909504601f810185900485028601850190965285855290949193929091908301828280156111cc5780601f106111a1576101008083540402835291602001916111cc565b820191906000526020600020905b8154815290600101906020018083116111af57829003601f168201915b505050506002830154600390930154919260ff8082169361010090920416915085565b60026020818152600092835260409283902080546001808301805487519281161561010002600019011695909504601f81018590048502820185019096528581529094919390929091908301828280156111cc5780601f106111a1576101008083540402835291602001916111cc565b60005481565b828054600181600116156101000203166002900490600052602060002090601f016020900481019282601f106112a657805160ff19168380011785556112d3565b828001600101855582156112d3579182015b828111156112d35782518255916020019190600101906112b8565b506112df9291506113d3565b5090565b828054600181600116156101000203166002900490600052602060002090601f016020900481019282601f1061131c57805485556112d3565b828001600101855582156112d357600052602060002091601f016020900482015b828111156112d357825482559160010191906001019061133d565b60a0604051908101604052806000815260200160608152602001600015158152602001600015158152602001600081525090565b50805460018160011615610100020316600290046000825580601f106113b257506113d0565b601f0160209004906000526020600020908101906113d091906113d3565b50565b6113ed91905b808211156112df57600081556001016113d9565b9056fea165627a7a72305820ce9b3dc5aea3a68b679eef46ac17d8c21120ab2ff372a3b50b6392a5947be05d0029",
  "source": "pragma solidity ^0.5.0;\r\n\r\ncontract TodoList {\r\n  uint public taskCount = 0;\r\n\r\n  struct Task {\r\n    uint id;\r\n    string content;\r\n    bool completed;\r\n    bool deleted;\r\n    uint priority;\r\n  }\r\n\r\n  struct SortedTask {\r\n    uint id;\r\n    string content;\r\n    bool completed;\r\n    bool deleted;\r\n    uint priority;\r\n  }\r\n\r\n  \r\n\r\n  mapping(uint => Task) public tasks;\r\n  mapping(uint => SortedTask) public sortedTasks;\r\n\r\n  event TaskCreated(\r\n    uint id,\r\n    string content,\r\n    bool completed,\r\n    bool deleted,\r\n    uint priority\r\n  );\r\n\r\n  event TaskCompleted(\r\n    uint id,\r\n    bool completed\r\n  );\r\n\r\n  event TaskDeleted(\r\n    uint id,\r\n    bool deleted\r\n  );\r\n\r\n  event TaskUpdated(\r\n    uint id,\r\n    string content,\r\n    bool completed,\r\n    bool deleted,\r\n    uint priority\r\n\r\n  );\r\n\r\n  event sortedTasksCreated(\r\n    uint id,\r\n    string content,\r\n    bool completed,\r\n    bool deleted,\r\n    uint priority\r\n  );\r\n\r\n  constructor() public {\r\n    createTask(\"Task #1\",1);\r\n  }\r\n\r\n  function createTask(string memory _content,uint _priority) public {\r\n    require(_priority >= 1 && _priority <= 3, \"Invalid priority level\");\r\n    taskCount ++;\r\n    tasks[taskCount] = Task(taskCount, _content, false,false,_priority);\r\n    emit TaskCreated(taskCount, _content, false,false,_priority);\r\n  }\r\n  \r\n  function getTasks() public{\r\n  uint count=0;\r\n  uint[] memory taskIds = new uint[](taskCount);\r\n  uint[] memory taskPriorities = new uint[](taskCount);\r\n  uint highPriorityIndex = 0;\r\n  uint mediumPriorityIndex = 0;\r\n  uint lowPriorityIndex = 0;\r\n  for (uint i = 1; i <= taskCount; i++) {\r\n    taskIds[i-1] = i;\r\n    taskPriorities[i-1] = tasks[i].priority;\r\n\r\n    if (tasks[i].priority == 3) {\r\n      highPriorityIndex++;\r\n    } else if (tasks[i].priority == 2) {\r\n      mediumPriorityIndex++;\r\n    } else {\r\n      lowPriorityIndex++;\r\n    }\r\n  }\r\n  //uint[] memory sortedTaskIds = new uint[](taskCount);\r\n  uint index = 0;\r\n  string memory _content;\r\n  uint _priority;\r\n\r\n  for (uint j = 3; j >= 1; j--) {\r\n    for (uint k = 0; k < taskCount; k++) {\r\n _content=tasks[taskIds[k]].content;\r\n   _priority=tasks[taskIds[k]].priority;\r\n\r\n      if (taskPriorities[k] == j) {\r\n        \r\n        if (j == 3) {\r\n          sortedTasks[index].id = taskIds[k];\r\n          highPriorityIndex--;\r\n          \r\n        } else if (j == 2) {\r\n          sortedTasks[index].id = taskIds[k];\r\n          mediumPriorityIndex--;\r\n        }\r\n          else{\r\n          sortedTasks[index].id = taskIds[k];\r\n          lowPriorityIndex--;\r\n          }\r\n          index++;\r\n        sortedTasks[count] = SortedTask(count, _content, false,false,_priority);\r\n        count++;\r\n      }\r\n    }\r\n    \r\n    emit sortedTasksCreated(count, _content, false,false,_priority);\r\n\r\n  //return sortedTaskIds;\r\n\r\n  //emit sortCompleted(sortedTasks);\r\n  }\r\n  }\r\n\r\n\r\n\r\n\r\n\r\n\r\n\r\n\r\n  function deleteTask(uint _id) public {\r\n    require(_id <= taskCount, \"Invalid task ID\");\r\n    Task memory _task = tasks[_id];\r\n    _task.deleted = true;\r\n    tasks[_id] = _task;\r\n    for (uint i = _id; i<taskCount; i++){\r\n            tasks[i] = tasks[i+1];\r\n            tasks[i].id = tasks[i].id-1;\r\n        }\r\n    delete tasks[taskCount];\r\n    taskCount--;\r\n    emit TaskDeleted(_id,_task.deleted);\r\n  }\r\n\r\n\r\n\r\n  function editTask(uint _id, string memory _newContent, uint _priority) public {\r\n      require(_id > 0 && _id <= taskCount, \"Invalid task ID\");\r\n      require(_priority >= 1 && _priority <= 3, \"Invalid priority level\");\r\n\r\n      Task storage task = tasks[_id];\r\n      require(!task.deleted, \"Task has been deleted\");\r\n      task.content = _newContent;\r\n      task.priority = _priority;\r\n      tasks[_id] = task;\r\n      emit TaskUpdated(_id, task.content, task.completed, task.deleted,task.priority);\r\n}\r\n\r\n  function toggleCompleted(uint _id) public {\r\n    Task memory _task = tasks[_id];\r\n    _task.completed = !_task.completed;\r\n    tasks[_id] = _task;\r\n    emit TaskCompleted(_id, _task.completed);\r\n  }\r\n\r\n/*\r\n  function getTasks() public view returns (uint[] memory) {\r\n    uint[] memory memoryArrayid = new uint[](taskCount);\r\n    \r\n    for(uint i = 0; i < taskCount; i++) {\r\n        memoryArrayid[i] = tasks[i].id;\r\n    }\r\n    return memoryArrayid;\r\n\r\n  }\r\n  \r\n*/\r\n  //function getTasks() public view returns (uint[] memory) {\r\n \r\n\r\n}\r\n\r\n",
  "sourcePath": "C:/Users/16575/Documents/Sem2/AdvBlockchain/Final Project/Ethereum-Todo-List-/contracts/TodoList.sol",
  "compiler": {
    "name": "solc",
    "version": "0.5.0+commit.1d4f565a.Emscripten.clang"
  },
  "schemaVersion": "3.0.1",
  "updatedAt": "2023-04-29T07:02:17.248Z",
  "devdoc": {
    "methods": {}
  },
  "userdoc": {
    "methods": {}
  }
}